:020000040800F2
:10000000200800246D030008D17700082975000836
:10001000C9770008990700089996000800000000B9
:10002000000000000000000000000000F17B00085C
:10003000411200080000000049780008517C0008C7
:100040008B0300088B0300088B0300088B03000858
:100050008B0300088B030008491200088B0300087B
:100060008B0300088B0300088B030008A10700081E
:10007000B10700088B0300088B0300088B030008FE
:100080008B0300088B0300088B0300088B03000818
:100090008B0300088B0300088B0300088B03000808
:1000A0008B0300088B0300088B0300088B030008F8
:1000B0008B0300088B0300088B0300088B030008E8
:1000C0008B0300088B0300088B0300088B030008D8
:1000D0008B0300088B0300088B0300088B030008C8
:1000E000591200088B030008000000008B03000871
:1000F0008B0300088B0300088B0300088B030008A8
:100100008B0300088B0300088B0300088B03000897
:100110008B0300088B0300088B0300088B03000887
:100120008B0300088B0300088B0300088B03000877
:100130008B0300088B0300088B0300088B03000867
:1001400000000000000000000000000000000000AF
:100150008B0300088B0300088B0300088B03000847
:100160008B0300088B0300088B0300088B03000837
:100170008B0300088B0300088B0300088B03000827
:100180008B0300088B0300088B0300088B03000817
:100190008B0300088B0300088B0300088B03000807
:1001A0008B0300088B0300088B0300088B030008F7
:1001B0008B0300088B0300088B0300088B030008E7
:1001C0008B0300088B0300088B0300088B030008D7
:1001D0008B0300088B0300088B0300088B030008C7
:1001E0008B0300088B0300088B0300088B030008B7
:1001F0008B0300088B0300088B0300088B030008A7
:100200008B0300088B0300088B0300088B03000896
:100210008B0300088B0300088B0300088B03000886
:100220008B0300088B0300088B030008000000000C
:100230008B0300088B030008000000008B030008FC
:100240008B0300088B0300088B0300088B03000856
:100250008B0300088B0300088B0300088B03000846
:100260008B0300088B0300088B0300088B03000836
:100270008B0300088B0300088B03000800000000BC
:100280008B0300088B0300088B03000800000000AC
:10029000000000008B03000800F002F800F056F8A0
:1002A00014A696E8000CB244B344DA4501D100F03C
:1002B0004DF8BAE80F000FA696E83000A5EB04054C
:1002C00004EB0607AAEB0704A7F101074FEA15158F
:1002D0004FEA3414A4F10104AC4201D300F036F823
:1002E00013F0010F18BFFB1A43F0010300F001F8EF
:1002F000DBE7184798950000B8950000103A24BF36
:1003000078C878C1FAD8520724BF30C830C144BF7A
:1003100004680C6070470000704700000023002450
:1003200000250026103A28BF78C1FBD8520728BF05
:1003300030C148BF0B6070471FB509F06BFA9DE8EC
:10034000030000F025F91FBD10B510BD00F0A2F9A3
:100350001146FFF7F1FF09F007FA00F0C0F903B406
:10036000FFF7F2FF03BC00F0F1F900000A488047F4
:100370000A4880470A480047FEE7FEE7FEE7FEE737
:10038000FEE7FEE7FEE7FEE7FEE7FEE70548064973
:10039000064A074B7047000079120008417D0008AB
:1003A00099020008200200242008002420040024D0
:1003B0002004002470B5064600F0CEF8056806F16A
:1003C0000B0020F00704B4429CBF002070BD2B46F8
:1003D0006A68BAB11068A04210D304F108018842DB
:1003E0003CBF5068586007D35168101941601168CC
:1003F000091B016058601460101D70BD13465268DF
:10040000002AE7D12146284600F0AEF80028DED1C8
:1004100070BD53EA020C00F069802DE9F04B4FF0FB
:100420000006002B1FBFB3FA83F503FA05F424FA84
:1004300005F65E4012BF1643B2FA82F502FA05F4E1
:10044000C5F120051EBF22FA05FC44EA0C04203544
:1004500056EA044C4FEA144418BF641C4FF00008DD
:100460004FF00009904271EB030C39D3002919BFFA
:10047000B1FA81F701FA07F6B0FA80F700FA07F649
:10048000C7F120071EBF20FA07FC46EA0C062037FA
:10049000B6FBF4FCA7EB0507103F07F01F0BCBF1F1
:1004A00020062CFA06F60CFA0BFB44BFB3460026D6
:1004B000202FA4BF5E464FF0000B5BEA060C08BF7E
:1004C0004FF0010B19EB0B0948EB0608ABFB027C64
:1004D00006FB02CC0BFB03CCC01B71EB0C01C1E78C
:1004E0000B46024641464846BDE8F08B13B508432B
:1004F00018BF4FF0FF300146AFF30080BDE81C404D
:1005000070474FF0000200B51346944696462039D6
:1005100022BFA0E80C50A0E80C50B1F12001BFF4BC
:10052000F7AF090728BFA0E80C5048BF0CC05DF822
:1005300004EB890028BF40F8042B08BF704748BF70
:1005400020F8022B11F0804F18BF00F8012B7047E4
:10055000704770477047000000487047180000243B
:10056000704770477047704738B504460A46002008
:100570006946AFF30080002808BF38BD02460099E5
:10058000204600F065F8012038BD012000F07AB85F
:10059000F8B5AFF30080054600200C460C2000BFE4
:1005A0000646A819A0420DD9324669460020AFF38D
:1005B0000080070008BF00F065F80098A04218BF4F
:1005C0000546C419FFF7C8FF05600746F01D20F077
:1005D00007004619284600F00AF8B44208BFF8BDE3
:1005E000A21B31463868BDE8F84000F031B8002160
:1005F0000160416070470C20704770B50446051FCC
:10060000FFF7AAFF0068002C14BF446870BD002CDF
:1006100018BFAC423CBF20466468F8D301680A1892
:10062000AA4218BF456003D12A68054611440160FB
:1006300028684119A1421CBF6C6070BD6168696087
:1006400021680844286070BD0048704710000024ED
:10065000034640688C46002818BF88423CBF0346CA
:100660004068F8D318681844884207D00CF103009A
:1006700020F00700001D411A521A0146081D0A60A9
:10068000FFF7BBBF10B500F039F8BDE8104000F02F
:100690002FB870477546FFF7D7FFAE46050069468D
:1006A000534620F00700854618B020B5FFF76EFED0
:1006B000BDE820404FF000064FF000074FF0000863
:1006C0004FF0000BAC46ACE8C009ACE8C009ACE8A0
:1006D000C009ACE8C00921F007018D46704710B58C
:1006E0000446AFF300802046BDE81040FFF737BE58
:1006F000002801D000F02AB87047000010B501288A
:1007000005D0002103A000F027F8012010BD09A1A9
:10071000F8E7000053494752544D454D3A204F7574
:1007200074206F662068656170206D656D6F7279E9
:10073000000000003A2048656170206D656D6F72A1
:100740007920636F727275707465640001491820B6
:10075000ABBEFEE72600020070B505460C460A2037
:1007600000E06D1C00F011F835B128780028F8D1B0
:1007700002E0641C00F009F814B120780028F8D1D8
:10078000BDE870400A20AFF3008008B569468DF8D7
:1007900000000320ABBE08BDFFE7FEE7000000003D
:1007A00080B540F27000C2F2004000F079FD80BDDB
:1007B00080B540F2E800C2F2004000F071FD80BD5B
:1007C00083B002900298016801201022C4F2020254
:1007D0009142009000F0A380FFE702980168012099
:1007E0002822C4F202029142009000F09880FFE7B4
:1007F0000298016801204022C4F202029142009056
:1008000000F08D80FFE70298016801205822C4F2B1
:1008100002029142009000F08280FFE70298016896
:1008200001207022C4F202029142009077D0FFE7CB
:100830000298016801208822C4F2020291420090CD
:100840006DD0FFE7029801680120A022C4F20202E5
:100850009142009063D0FFE7029801680120B8221E
:10086000C4F202029142009059D0FFE70298016859
:10087000012040F21042C4F20202914200904ED098
:10088000FFE702980168012040F22842C4F2020208
:100890009142009043D0FFE702980168012040F2A6
:1008A0004042C4F202029142009038D0FFE7029821
:1008B0000168012040F25842C4F2020291420090C5
:1008C0002DD0FFE702980168012040F27042C4F287
:1008D00002029142009022D0FFE7029801680120B5
:1008E00040F28842C4F202029142009017D0FFE722
:1008F00002980168012040F2A042C4F20202914233
:1009000000900CD0FFE7029800684FF64831CBF614
:10091000FD710844B0FA80F040090090FFE70098AC
:10092000C00740B3FFE70298007810384AF6AB21C1
:10093000CAF6AA21A0FB011000090190019800F05D
:10094000070149F64C00C0F60000405C0299C865FA
:100950000198042807D3FFE702990868042262F38C
:100960000900886506E00299086840F2FF3290436A
:100970008865FFE705E00299086820F0FF008865B8
:10098000FFE70298806D03B0704700000000000090
:1009900084B00390039800680190039801680120D7
:1009A00045F20842C5F60202914200904ED0FFE7A0
:1009B00003980168012045F21C42C5F602029142EB
:1009C000009043D0FFE703980168012045F23042D0
:1009D000C5F602029142009038D0FFE70398016803
:1009E000012045F24442C5F60202914200902DD00A
:1009F000FFE703980168012045F25842C5F602025C
:100A00009142009022D0FFE703980168012045F24F
:100A10006C42C5F602029142009017D0FFE703989E
:100A20000168012045F28042C5F602029142009021
:100A30000CD0FFE7039800684AF66C31CAF2FD71EA
:100A40000844B0FA80F040090090FFE70098C00722
:100A500010B3FFE70398007808384CF6CD41CCF688
:100A6000CC41A0FB011000090290029945F600005C
:100A7000C5F6020000EB810003990866039945F66C
:100A80008000C5F602004866029800F01F010120B0
:100A900088400399886635E00398007810384AF654
:100AA000AB21CAF6AA21A0FB01100009029001980F
:100AB00040F2B841C4F2020188420CD8FFE7019825
:100AC00040F21041C4F20201884204D3FFE70298C9
:100AD00008300290FFE7029940F60000C4F20200DD
:100AE00000EB810003990866039940F68000C4F288
:100AF00002004866029800F01F0101208840039917
:100B00008866FFE704B0704783B0029002980079CE
:100B100001900198002800F08A80FFE701980828DA
:100B200000F28580FFE702980168012045F2084243
:100B3000C5F60202914200904ED0FFE7029801688C
:100B4000012045F21C42C5F602029142009043D0BA
:100B5000FFE702980168012045F23042C5F6020223
:100B60009142009038D0FFE702980168012045F2D9
:100B70004442C5F60202914200902DD0FFE7029850
:100B80000168012045F25842C5F6020291420090E8
:100B900022D0FFE702980168012045F26C42C5F6B9
:100BA00002029142009017D0FFE7029801680120ED
:100BB00045F28042C5F60202914200900CD0FFE758
:100BC000029800684AF66C31CAF2FD710844B0FA26
:100BD00080F040090090FFE70098C00780B1FFE770
:100BE000019945F6FC00C5F6020000EB8100029970
:100BF000C866029945F64010C5F6020008670FE086
:100C0000019940F6FC00C4F2020000EB8100029959
:100C1000C866029940F64010C4F202000867FFE778
:100C20000198411E0120884002994867FFE703B000
:100C3000704700000000000085B0049000208DF88F
:100C40000F000498806918BBFFE70498806A02903F
:100C500003281BD80299DFE801F0020D021804985E
:100C600090F82F00C00720B1FFE701208DF80F009A
:100C7000FFE70CE00498C06AB0F1C07F04D1FFE741
:100C800001208DF80F00FFE701E000E0FFE747E0FB
:100C900004988069B0F5005F26D1FFE70498806A68
:100CA000019003281ED80199DFE801F00206021125
:100CB00001208DF80F0016E0049890F82F00C0076F
:100CC00020B1FFE701208DF80F00FFE70BE004984B
:100CD000C06AB0F1C07F04D1FFE701208DF80F009A
:100CE000FFE700E0FFE71AE00498806A009003281D
:100CF00004D3FFE70098032804D00EE001208DF80C
:100D00000F000BE0049890F82F00C00720B1FFE718
:100D100001208DF80F00FFE700E0FFE7FFE7FFE7A6
:100D20009DF80F0005B0704789B0089007910692B2
:100D300005930898806D04900898806D039008983A
:100D4000016801201022C4F202029142029000F0D8
:100D50000381FFE70898016801202822C4F20202FB
:100D60009142029000F0F880FFE7089801680120A6
:100D70004022C4F202029142029000F0ED80FFE7AF
:100D80000898016801205822C4F2020291420290A0
:100D900000F0E280FFE70898016801207022C4F2A9
:100DA00002029142029000F0D780FFE708980168A4
:100DB00001208822C4F202029142029000F0CC800D
:100DC000FFE7089801680120A022C4F202029142C4
:100DD000029000F0C180FFE7089801680120B82266
:100DE000C4F202029142029000F0B680FFE7089838
:100DF0000168012040F21042C4F2020291420290C6
:100E000000F0AA80FFE708980168012040F228421C
:100E1000C4F202029142029000F09E80FFE708981F
:100E20000168012040F24042C4F202029142029065
:100E300000F09280FFE708980168012040F25842D4
:100E4000C4F202029142029000F08680FFE7089807
:100E50000168012040F27042C4F202029142029005
:100E60007AD0FFE708980168012040F28842C4F276
:100E70000202914202906FD0FFE7089801680120BA
:100E800040F2A042C4F202029142029064D0FFE715
:100E900008980168012040F2B842C4F2020291426F
:100EA000029059D0FFE708980168012045F20842F6
:100EB000C5F60202914202904ED0FFE70898016801
:100EC000012045F21C42C5F602029142029043D035
:100ED000FFE708980168012045F23042C5F602029A
:100EE0009142029038D0FFE708980168012045F24E
:100EF0004442C5F60202914202902DD0FFE70898C5
:100F00000168012045F25842C5F602029142029062
:100F100022D0FFE708980168012045F26C42C5F62F
:100F200002029142029017D0FFE708980168012061
:100F300045F28042C5F60202914202900CD0FFE7D2
:100F4000089800684AF66C31CAF2FD710844B0FA9C
:100F500080F040090290FFE70298C00770B1FFE7F8
:100F60000898416E806E48600898C06E28B1FFE70F
:100F70000898016F406F4860FFE7FFE70898016835
:100F800001201022C4F202029142019000F0A380DD
:100F9000FFE70898016801202822C4F2020291426A
:100FA000019000F09880FFE7089801680120402236
:100FB000C4F202029142019000F08D80FFE7089890
:100FC000016801205822C4F202029142019000F00F
:100FD0008280FFE70898016801207022C4F20202B3
:100FE0009142019077D0FFE708980168012088229C
:100FF000C4F20202914201906DD0FFE708980168A7
:101000000120A022C4F202029142019063D0FFE7C6
:10101000089801680120B822C4F2020291420190AE
:1010200059D0FFE708980168012040F21042C4F24D
:101030000202914201904ED0FFE70898016801201A
:1010400040F22842C4F202029142019043D0FFE7ED
:1010500008980168012040F24042C4F20202914225
:10106000019038D0FFE708980168012040F258420B
:10107000C4F20202914201902DD0FFE70898016866
:10108000012040F27042C4F202029142019022D04B
:10109000FFE708980168012040F28842C4F202028A
:1010A0009142019017D0FFE708980168012040F2B3
:1010B000A042C4F20202914201900CD0FFE70898CE
:1010C00000684FF64831CBF6FD710844B0FA80F065
:1010D00040090190FFE70198C00750B3FFE7089867
:1010E000C06D00F01F013F20884004998860089877
:1010F0000168086820F4802008600598089909684C
:10110000486008988068402809D1FFE70698089948
:1011100009688860079808990968C86008E0079816
:10112000089909688860069808990968C860FFE707
:1011300082E008980168012045F20842C5F60202E3
:10114000914200904ED0FFE708980168012045F2D7
:101150001C42C5F602029142009043D0FFE7089876
:101160000168012045F23042C5F60202914200902A
:1011700038D0FFE708980168012045F24442C5F6DF
:101180000202914200902DD0FFE7089801680120EB
:1011900045F25842C5F602029142009022D0FFE784
:1011A00008980168012045F26C42C5F6020291429E
:1011B000009017D0FFE708980168012045F28042AF
:1011C000C5F60202914200900CD0FFE70898006833
:1011D0004AF66C31CAF2FD710844B0FA80F0400959
:1011E0000090FFE70098C00720B3FFE70898C06DA4
:1011F00000F01F0101208840039948600598089974
:101200000968486008988068402809D1FFE7069877
:10121000089909688860079808990968C86008E013
:101220000798089909688860069808990968C8604D
:10123000FFE700E0FFE7FFE709B0704700000000AC
:10124000704700000000000080B5012002F06CF93A
:1012500080BD00000000000080B54FF4004002F0A7
:1012600063F980BD0000000081B0EFF3108072B61A
:101270000090FFE7FEE7000044F60C01C5F602010E
:10128000086840F002000860FFE744F60400C5F675
:10129000020000688004002801D4FFE7F5E77047EA
:1012A00080B590B00F9000200B9040F20000C2F289
:1012B0000040006848F2B511C1F64E31A0FB0110A4
:1012C000800A0A900F98806D09900F98806D0890A1
:1012D000099800680E90089800680D900F980168B2
:1012E00001201022C4F202029142079000F0A38074
:1012F000FFE70F98016801202822C4F20202914200
:10130000079000F09880FFE70F98016801204022C5
:10131000C4F202029142079000F08D80FFE70F981F
:10132000016801205822C4F202029142079000F0A5
:101330008280FFE70F98016801207022C4F2020248
:101340009142079077D0FFE70F980168012088222B
:10135000C4F20202914207906DD0FFE70F98016836
:101360000120A022C4F202029142079063D0FFE75D
:101370000F9801680120B822C4F20202914207903E
:1013800059D0FFE70F980168012040F21042C4F2E3
:101390000202914207904ED0FFE70F9801680120AA
:1013A00040F22842C4F202029142079043D0FFE784
:1013B0000F980168012040F24042C4F202029142BB
:1013C000079038D0FFE70F980168012040F258429B
:1013D000C4F20202914207902DD0FFE70F980168F6
:1013E000012040F27042C4F202029142079022D0E2
:1013F000FFE70F980168012040F28842C4F2020220
:101400009142079017D0FFE70F980168012040F242
:10141000A042C4F20202914207900CD0FFE70F985D
:1014200000684FF64831CBF6FD710844B0FA80F001
:1014300040090790FFE70798C007002800F01385D0
:10144000FFE70E980F99C96D01F01F01C840000712
:10145000002840F1B080FFE70F9800681021C4F227
:101460000201884200F08180FFE70F980068282180
:10147000C4F20201884278D0FFE70F98006840214B
:10148000C4F20201884270D0FFE70F98006858212B
:10149000C4F20201884268D0FFE70F98006870210B
:1014A000C4F20201884260D0FFE70F9800688821EB
:1014B000C4F20201884258D0FFE70F980068A021CB
:1014C000C4F20201884250D0FFE70F980068B821AB
:1014D000C4F20201884248D0FFE70F98006840F24A
:1014E0001041C4F2020188423FD0FFE70F98006824
:1014F00040F22841C4F20201884236D0FFE70F983B
:10150000006840F24041C4F2020188422DD0FFE75A
:101510000F98006840F25841C4F20201884224D07A
:10152000FFE70F98006840F27041C4F20201884260
:101530001BD0FFE70F98006840F28841C4F2020117
:10154000884212D0FFE70F98006840F2A041C4F231
:101550000201884209D0FFE70F98006840F2B841C5
:10156000C4F20201884207D1FFE70F9800680068C3
:1015700000F00400069006E00F980068006800F094
:1015800008000690FFE70698A0B1FFE70F980168F2
:10159000086820F0040008600F98C06D00F01F017B
:1015A00008208840099988600F99486D40F0010033
:1015B0004865FFE7FFE70E980F99C96D01F01F011D
:1015C000C840C007002800F0A980FFE70F98006816
:1015D0001021C4F20201884200F08180FFE70F98D9
:1015E00000682821C4F20201884278D0FFE70F98F2
:1015F00000684021C4F20201884270D0FFE70F98D2
:1016000000685821C4F20201884268D0FFE70F98B1
:1016100000687021C4F20201884260D0FFE70F9891
:1016200000688821C4F20201884258D0FFE70F9871
:101630000068A021C4F20201884250D0FFE70F9851
:101640000068B821C4F20201884248D0FFE70F9831
:10165000006840F21041C4F2020188423FD0FFE727
:101660000F98006840F22841C4F20201884236D047
:10167000FFE70F98006840F24041C4F2020188423F
:101680002DD0FFE70F98006840F25841C4F20201E4
:10169000884224D0FFE70F98006840F27041C4F2FE
:1016A000020188421BD0FFE70F98006840F2884192
:1016B000C4F20201884212D0FFE70F98006840F29E
:1016C000A041C4F20201884209D0FFE70F980068E8
:1016D00040F2B841C4F20201884207D1FFE70F98F7
:1016E0000068406900F08000059005E00F980068F0
:1016F000006800200590FFE7059870B1FFE70F989C
:10170000C06D00F01F0101208840099988600F9981
:10171000486D40F002004865FFE7FFE70E980F991B
:10172000C96D01F01F01C8404007002840F1A980A1
:10173000FFE70F9800681021C4F20201884200F010
:101740008180FFE70F9800682821C4F202018842D7
:1017500078D0FFE70F9800684021C4F20201884268
:1017600070D0FFE70F9800685821C4F20201884248
:1017700068D0FFE70F9800687021C4F20201884228
:1017800060D0FFE70F9800688821C4F20201884208
:1017900058D0FFE70F980068A021C4F202018842E8
:1017A00050D0FFE70F980068B821C4F202018842C8
:1017B00048D0FFE70F98006840F21041C4F20201E0
:1017C00088423FD0FFE70F98006840F22841C4F2FA
:1017D0000201884236D0FFE70F98006840F240418E
:1017E000C4F2020188422DD0FFE70F98006840F252
:1017F0005841C4F20201884224D0FFE70F980068E4
:1018000040F27041C4F2020188421BD0FFE70F98FA
:10181000006840F28841C4F20201884212D0FFE71A
:101820000F98006840F2A041C4F20201884209D03A
:10183000FFE70F98006840F2B841C4F20201884205
:1018400007D1FFE70F980068006800F002000490DD
:1018500005E00F980068006800200490FFE70498F6
:1018600070B1FFE70F98C06D00F01F0104208840A1
:10187000099988600F99486D40F004004865FFE7BA
:10188000FFE70E980F99C96D01F01F01C840C0060F
:10189000002840F1DE80FFE70F9800681021C4F2B5
:1018A0000201884200F08180FFE70F98006828213C
:1018B000C4F20201884278D0FFE70F980068402107
:1018C000C4F20201884270D0FFE70F9800685821E7
:1018D000C4F20201884268D0FFE70F9800687021C7
:1018E000C4F20201884260D0FFE70F9800688821A7
:1018F000C4F20201884258D0FFE70F980068A02187
:10190000C4F20201884250D0FFE70F980068B82166
:10191000C4F20201884248D0FFE70F98006840F205
:101920001041C4F2020188423FD0FFE70F980068DF
:1019300040F22841C4F20201884236D0FFE70F98F6
:10194000006840F24041C4F2020188422DD0FFE716
:101950000F98006840F25841C4F20201884224D036
:10196000FFE70F98006840F27041C4F2020188421C
:101970001BD0FFE70F98006840F28841C4F20201D3
:10198000884212D0FFE70F98006840F2A041C4F2ED
:101990000201884209D0FFE70F98006840F2B84181
:1019A000C4F20201884207D1FFE70F98006800687F
:1019B00000F00800039006E00F980068006800F04F
:1019C00004000390FFE70398002841D0FFE70F9839
:1019D000C06D00F01F0110208840099988600F98A1
:1019E00000680068400300281AD5FFE70F980068D8
:1019F00000680003002809D4FFE70F98006C20B1AD
:101A0000FFE70F98016C8847FFE708E00F98806CAC
:101A100020B1FFE70F98816C8847FFE7FFE716E0EA
:101A20000F9800680068C005002807D4FFE70F98EA
:101A30000168086820F008000860FFE70F98006C54
:101A400020B1FFE70F98016C8847FFE7FFE7FFE74A
:101A5000FFE70E980F99C96D01F01F01C84080067D
:101A6000002840F12681FFE70F9800681021C4F29A
:101A70000201884200F08180FFE70F98006828216A
:101A8000C4F20201884278D0FFE70F980068402135
:101A9000C4F20201884270D0FFE70F980068582115
:101AA000C4F20201884268D0FFE70F9800687021F5
:101AB000C4F20201884260D0FFE70F9800688821D5
:101AC000C4F20201884258D0FFE70F980068A021B5
:101AD000C4F20201884250D0FFE70F980068B82195
:101AE000C4F20201884248D0FFE70F98006840F234
:101AF0001041C4F2020188423FD0FFE70F9800680E
:101B000040F22841C4F20201884236D0FFE70F9824
:101B1000006840F24041C4F2020188422DD0FFE744
:101B20000F98006840F25841C4F20201884224D064
:101B3000FFE70F98006840F27041C4F2020188424A
:101B40001BD0FFE70F98006840F28841C4F2020101
:101B5000884212D0FFE70F98006840F2A041C4F21B
:101B60000201884209D0FFE70F98006840F2B841AF
:101B7000C4F20201884207D1FFE70F9800680068AD
:101B800000F01000029006E00F980068006800F076
:101B900002000290FFE70298002800F08980FFE72A
:101BA0000F98C06D00F01F012020884009998860BF
:101BB0000F9890F83500042837D1FFE70F98016897
:101BC000086820F0160008600F980168486920F046
:101BD000800048610F98006C20B9FFE70F98806C77
:101BE00038B1FFE70F980168086820F00800086026
:101BF000FFE70F98C06D00F01F013F208840099952
:101C000088600F99012081F83500FFE70F990020C7
:101C100081F83400FFE70F98006D20B1FFE70F98BF
:101C2000016D8847FFE700F019BC0F980068006855
:101C3000400300281AD5FFE70F98006800680003EA
:101C4000002809D4FFE70F98406C20B1FFE70F98F8
:101C5000416C8847FFE708E00F98C06B20B1FFE7B1
:101C60000F98C16B8847FFE7FFE720E00F980068F7
:101C70000068C005002811D4FFE70F9801680868C4
:101C800020F0100008600F99012081F83500FFE76F
:101C90000F99002081F83400FFE7FFE70F98C06B31
:101CA00020B1FFE70F98C16B8847FFE7FFE7FFE729
:101CB000FFE70F98406D002800F0D480FFE70F98F1
:101CC000406DC007002800F0C480FFE70F99042092
:101CD00081F835000F9800681021C4F20201884293
:101CE00000F08180FFE70F9800682821C4F202010C
:101CF000884278D0FFE70F9800684021C4F20201C3
:101D0000884270D0FFE70F9800685821C4F20201A2
:101D1000884268D0FFE70F9800687021C4F2020182
:101D2000884260D0FFE70F9800688821C4F2020162
:101D3000884258D0FFE70F980068A021C4F2020142
:101D4000884250D0FFE70F980068B821C4F2020122
:101D5000884248D0FFE70F98006840F21041C4F273
:101D6000020188423FD0FFE70F98006840F2284107
:101D7000C4F20201884236D0FFE70F98006840F2B3
:101D80004041C4F2020188422DD0FFE70F9800685D
:101D900040F25841C4F20201884224D0FFE70F9874
:101DA000006840F27041C4F2020188421BD0FFE794
:101DB0000F98006840F28841C4F20201884212D0B4
:101DC000FFE70F98006840F2A041C4F20201884288
:101DD00009D0FFE70F98006840F2B841C4F2020151
:101DE000884207D1FFE70F980168086820F00100DA
:101DF000086006E00F980168086820F0010008609C
:101E0000FFE7FFE70B9801300B900A99884201D950
:101E1000FFE707E0FFE70F9800680068C0070028A9
:101E2000F0D1FFE70F9800680068C00728B1FFE70E
:101E30000F99032081F8350004E00F99012081F803
:101E40003500FFE7FFE70F99002081F83400FFE736
:101E5000FFE70F98C06C20B1FFE70F98C16C88476F
:101E6000FFE7FFE7FAE20F980168012045F2084218
:101E7000C5F60202914201904ED0FFE70F9801682B
:101E8000012045F21C42C5F602029142019043D066
:101E9000FFE70F980168012045F23042C5F60202C3
:101EA0009142019038D0FFE70F980168012045F278
:101EB0004442C5F60202914201902DD0FFE70F98EF
:101EC0000168012045F25842C5F602029142019094
:101ED00022D0FFE70F980168012045F26C42C5F659
:101EE00002029142019017D0FFE70F98016801208C
:101EF00045F28042C5F60202914201900CD0FFE704
:101F00000F9800684AF66C31CAF2FD710844B0FAC5
:101F100080F040090190FFE70198C007002800F019
:101F20009B82FFE70F98006800680C900D980F994E
:101F3000C96D01F01F01C8404007002840F1D7805B
:101F4000FFE79DF830004007002840F1D080FFE710
:101F50000F98C06D00F01F01042088400899486068
:101F60009DF831000006002818D5FFE79DF83200E3
:101F7000C00748B9FFE70F98806C20B1FFE70F98C2
:101F8000816C8847FFE708E00F98006C20B1FFE7FD
:101F90000F98016C8847FFE7FFE7A7E09DF8300046
:101FA0008006002800F19980FFE70F980068102153
:101FB000C4F20201884200F08180FFE70F980068B8
:101FC0002821C4F20201884278D0FFE70F98006808
:101FD0004021C4F20201884270D0FFE70F980068E8
:101FE0005821C4F20201884268D0FFE70F980068C8
:101FF0007021C4F20201884260D0FFE70F980068A8
:102000008821C4F20201884258D0FFE70F98006887
:10201000A021C4F20201884250D0FFE70F98006867
:10202000B821C4F20201884248D0FFE70F98006847
:1020300040F21041C4F2020188423FD0FFE70F98FE
:10204000006840F22841C4F20201884236D0FFE71E
:102050000F98006840F24041C4F2020188422DD03E
:10206000FFE70F98006840F25841C4F2020188422D
:1020700024D0FFE70F98006840F27041C4F20201DB
:1020800088421BD0FFE70F98006840F28841C4F2F5
:102090000201884212D0FFE70F98006840F2A04189
:1020A000C4F20201884209D0FFE70F98006840F2AD
:1020B000B841C4F20201884207D1FFE70F980168D6
:1020C000086820F00800086006E00F9801680868BA
:1020D00020F004000860FFE7FFE70F98006C20B1D4
:1020E000FFE70F98016C8847FFE7FFE7B3E10D9822
:1020F0000F99C96D01F01F01C8408007002840F109
:10210000E180FFE79DF830008007002840F1DA8089
:10211000FFE70F98C06D00F01F010220884008996A
:1021200048609DF831000006002818D5FFE79DF8AB
:102130003200C00748B9FFE70F98406C20B1FFE7B5
:102140000F98416C8847FFE708E00F98C06B20B1FB
:10215000FFE70F98C16B8847FFE7FFE7B1E09DF805
:1021600030008006002800F1A380FFE70F98006888
:102170001021C4F20201884200F08180FFE70F982D
:1021800000682821C4F20201884278D0FFE70F9846
:1021900000684021C4F20201884270D0FFE70F9826
:1021A00000685821C4F20201884268D0FFE70F9806
:1021B00000687021C4F20201884260D0FFE70F98E6
:1021C00000688821C4F20201884258D0FFE70F98C6
:1021D0000068A021C4F20201884250D0FFE70F98A6
:1021E0000068B821C4F20201884248D0FFE70F9886
:1021F000006840F21041C4F2020188423FD0FFE77C
:102200000F98006840F22841C4F20201884236D09B
:10221000FFE70F98006840F24041C4F20201884293
:102220002DD0FFE70F98006840F25841C4F2020138
:10223000884224D0FFE70F98006840F27041C4F252
:10224000020188421BD0FFE70F98006840F28841E6
:10225000C4F20201884212D0FFE70F98006840F2F2
:10226000A041C4F20201884209D0FFE70F9800683C
:1022700040F2B841C4F20201884207D1FFE70F984B
:102280000168086820F01400086006E00F980168F3
:10229000086820F00A000860FFE70F99012081F824
:1022A0003500FFE70F99002081F83400FFE7FFE7D2
:1022B0000F98C06B20B1FFE70F98C16B8847FFE70D
:1022C000FFE7C7E00D980F99C96D01F01F01C840E5
:1022D0000007002840F1BC80FFE79DF830000007B0
:1022E000002840F1B580FFE70F9800681021C4F284
:1022F0000201884200F08180FFE70F9800682821E2
:10230000C4F20201884278D0FFE70F9800684021AC
:10231000C4F20201884270D0FFE70F98006858218C
:10232000C4F20201884268D0FFE70F98006870216C
:10233000C4F20201884260D0FFE70F98006888214C
:10234000C4F20201884258D0FFE70F980068A0212C
:10235000C4F20201884250D0FFE70F980068B8210C
:10236000C4F20201884248D0FFE70F98006840F2AB
:102370001041C4F2020188423FD0FFE70F98006885
:1023800040F22841C4F20201884236D0FFE70F989C
:10239000006840F24041C4F2020188422DD0FFE7BC
:1023A0000F98006840F25841C4F20201884224D0DC
:1023B000FFE70F98006840F27041C4F202018842C2
:1023C0001BD0FFE70F98006840F28841C4F2020179
:1023D000884212D0FFE70F98006840F2A041C4F293
:1023E0000201884209D0FFE70F98006840F2B84127
:1023F000C4F20201884207D1FFE70F98016808681C
:1024000020F01C00086006E00F980168086820F0C2
:102410000E000860FFE70F98C06D00F01F0101205B
:1024200000FA01F1089A51600F9948650F9981F8F7
:102430003500FFE70F99002081F83400FFE70F987F
:10244000C06C20B1FFE70F98C16C8847FFE700E040
:10245000FFE7FFE7FFE700E0FFE7FFE710B080BD21
:1024600010B58EB00C9001F07FFA0A900C9828B944
:10247000FFE701208DF8370000F09FBC0C98016841
:1024800001201022C4F202029142079000F0A380C2
:10249000FFE70C98016801202822C4F20202914251
:1024A000079000F09880FFE70C9801680120402217
:1024B000C4F202029142079000F08D80FFE70C9871
:1024C000016801205822C4F202029142079000F0F4
:1024D0008280FFE70C98016801207022C4F202029A
:1024E0009142079077D0FFE70C980168012088227D
:1024F000C4F20202914207906DD0FFE70C98016888
:102500000120A022C4F202029142079063D0FFE7AB
:102510000C9801680120B822C4F20202914207908F
:1025200059D0FFE70C980168012040F21042C4F234
:102530000202914207904ED0FFE70C9801680120FB
:1025400040F22842C4F202029142079043D0FFE7D2
:102550000C980168012040F24042C4F2020291420C
:10256000079038D0FFE70C980168012040F25842EC
:10257000C4F20202914207902DD0FFE70C98016847
:10258000012040F27042C4F202029142079022D030
:10259000FFE70C980168012040F28842C4F2020271
:1025A0009142079017D0FFE70C980168012040F294
:1025B000A042C4F20202914207900CD0FFE70C98AF
:1025C00000684FF64831CBF6FD710844B0FA80F050
:1025D00040090790FFE70798C007002800F07981BD
:1025E000FFE70C98406A08B1FFE7FFE70C9902206B
:1025F00081F83500FFE70C99002081F83400FFE7EF
:102600000C9800681021C4F20201884200F0818019
:10261000FFE70C9800682821C4F20201884278D0B4
:10262000FFE70C9800684021C4F20201884270D094
:10263000FFE70C9800685821C4F20201884268D074
:10264000FFE70C9800687021C4F20201884260D054
:10265000FFE70C9800688821C4F20201884258D034
:10266000FFE70C980068A021C4F20201884250D014
:10267000FFE70C980068B821C4F20201884248D0F4
:10268000FFE70C98006840F21041C4F20201884252
:102690003FD0FFE70C98006840F22841C4F20201E5
:1026A000884236D0FFE70C98006840F24041C4F2FF
:1026B000020188422DD0FFE70C98006840F2584193
:1026C000C4F20201884224D0FFE70C98006840F26F
:1026D0007041C4F2020188421BD0FFE70C980068E9
:1026E00040F28841C4F20201884212D0FFE70C9800
:1026F000006840F2A041C4F20201884209D0FFE71D
:102700000C98006840F2B841C4F20201884207D137
:10271000FFE70C980168086820F00100086006E0F7
:102720000C980168086820F001000860FFE7FFE7E7
:102730000C9800680068C00798B1FFE701F014F931
:102740000A99401A06280BD3FFE70C992020486508
:102750000C99032081F8350001208DF837002CE317
:10276000E6E70C98006800680B900B9848F23F0170
:10277000CFF6106108400B900C998868D1F80CC016
:102780000B694A6940EA0C00184310438A691043F8
:10279000CA691043096A01430B9808430B900C98CF
:1027A000406A042808D1FFE70C99C86A096B014305
:1027B0000B9808430B90FFE741F20000C5F600407C
:1027C00000684FF6FF718843B0F1005F40D3FFE728
:1027D0000C984068292807D3FFE70C98416801202E
:1027E0002F2906902AD3FFE70C9840683F2807D38B
:1027F000FFE70C9841680120432906901ED3FFE7AC
:102800000C984068472807D3FFE70C9841680120DF
:102810004929069012D3FFE70C98416800204F2900
:10282000059008D3FFE70C9841680020532938BF72
:1028300001200590FFE705980690FFE70698C0077E
:1028400028B1FFE70B9840F480100B90FFE7FFE7FB
:102850000B980C99096808600C98006840690B9007
:102860000B9820F007000B900C98416A0B980843D6
:102870000B900C98406A04281AD1FFE70C98816AE3
:102880000B9808430B900C98C06A80B1FFE70C9836
:10289000FEF7D2F950B1FFE70C99402048650C993A
:1028A000012081F835008DF8370086E2FFE7FFE769
:1028B0000B980C99096848610C98FDF781FF099005
:1028C0000C98C06D00F01F013F2088400999886076
:1028D00026E10C980168012045F20842C5F6020283
:1028E000914204904ED0FFE70C980168012045F218
:1028F0001C42C5F602029142049043D0FFE70C98B7
:102900000168012045F23042C5F60202914204906E
:1029100038D0FFE70C980168012045F24442C5F623
:102920000202914204902DD0FFE70C98016801202B
:1029300045F25842C5F602029142049022D0FFE7C8
:102940000C980168012045F26C42C5F602029142E2
:10295000049017D0FFE70C980168012045F28042EF
:10296000C5F60202914204900CD0FFE70C98006873
:102970004AF66C31CAF2FD710844B0FA80F04009A1
:102980000490FFE70498C007002800F0BD80FFE72F
:102990000C980168012045F20842C5F602029142F6
:1029A00003904ED0FFE70C980168012045F21C42CD
:1029B000C5F602029142039043D0FFE70C980168EC
:1029C000012045F23042C5F602029142039038D010
:1029D000FFE70C980168012045F24442C5F6020267
:1029E000914203902DD0FFE70C980168012045F239
:1029F0005842C5F602029142039022D0FFE70C989C
:102A00000168012045F26C42C5F602029142039032
:102A100017D0FFE70C980168012045F28042C5F607
:102A20000202914203900CD0FFE70C9800684AF62E
:102A30006C31CAF2FD710844B0FA80F0400903908D
:102A4000FFE70398C00708B1FFE7FFE70C990220F2
:102A500081F83500FFE70C99002081F83400FFE78A
:102A60000C98006800680B900B986FF310100B9097
:102A70000C988068402803D1FFE71020029008E0FE
:102A80000C9880688038B0FA80F04009800302908A
:102A9000FFE702980C99CA680B69D1F814C0D1F805
:102AA00018E0CC694EEA040E4CEA0E0C43EA0C0323
:102AB0001A4340EAD200096A40EA11110B98084310
:102AC0000B900B980C99096808600C9908684AF6F5
:102AD000F832CAF2FD7210444CF6CD42CCF6CC422C
:102AE000A0FB02026FF0030000EA9200C8650C9898
:102AF000FDF766FE08900C98C06D00F01F010120E4
:102B00008840089948600AE00C99402048650C9973
:102B1000032081F8350001208DF837004DE1FFE7F3
:102B20000C98016801201022C4F202029142019027
:102B300000F00381FFE70C98016801202822C4F20D
:102B400002029142019000F0F880FFE70C980168C2
:102B500001204022C4F202029142019000F0ED8077
:102B6000FFE70C98016801205822C4F2020291424A
:102B7000019000F0E280FFE70C98016801207022CC
:102B8000C4F202029142019000F0D780FFE70C9856
:102B9000016801208822C4F202029142019000F0F3
:102BA000CC80FFE70C9801680120A022C4F2020249
:102BB0009142019000F0C180FFE70C98016801206C
:102BC000B822C4F202029142019000F0B680FFE701
:102BD0000C980168012040F21042C4F202029142B6
:102BE000019000F0AA80FFE70C980168012040F2F4
:102BF0002842C4F202029142019000F09E80FFE759
:102C00000C980168012040F24042C4F20202914255
:102C1000019000F09280FFE70C980168012040F2DB
:102C20005842C4F202029142019000F08680FFE710
:102C30000C980168012040F27042C4F202029142F5
:102C400001907AD0FFE70C980168012040F2884299
:102C5000C4F20202914201906FD0FFE70C98016824
:102C6000012040F2A042C4F202029142019064D0DD
:102C7000FFE70C980168012040F2B842C4F202025A
:102C80009142019059D0FFE70C980168012045F26C
:102C90000842C5F60202914201904ED0FFE70C981F
:102CA0000168012045F21C42C5F6020291420190E2
:102CB00043D0FFE70C980168012045F23042C5F689
:102CC00002029142019038D0FFE70C980168012080
:102CD00045F24442C5F60202914201902DD0FFE731
:102CE0000C980168012045F25842C5F60202914253
:102CF000019022D0FFE70C980168012045F26C4258
:102D0000C5F602029142019017D0FFE70C980168C6
:102D1000012045F28042C5F60202914201900CD09A
:102D2000FFE70C9800684AF66C31CAF2FD7108445E
:102D3000B0FA80F040090190FFE70198C00790B316
:102D4000FFE70C98FDF724FE0C988068802804D1DA
:102D5000FFE70C9900204860FFE70C990879096E9D
:102D600008600C98416E806E48600C98406888B18D
:102D7000FFE70C98406808280CD8FFE70C98FDF78F
:102D8000C3FE0C98C16E002008600C98016F406F64
:102D9000486007E00C990020C8660C9908670C99F8
:102DA0004867FFE7FFE70C99002048650C9A01216E
:102DB00082F835108DF83700FFE79DF837000EB028
:102DC00010BD00000000000080B588B0069005919D
:102DD0000492039300208DF80B00069820B9FFE7BA
:102DE00001208DF81F006CE3FFE7069890F834008F
:102DF000012804D1FFE702208DF81F0061E3069946
:102E0000012081F83400FFE7FFE7069890F83500CD
:102E1000012840F04383FFE70699022081F835003E
:102E2000069900204865069800681021C4F2020146
:102E3000884200F08180FFE7069800682821C4F2EC
:102E40000201884278D0FFE7069800684021C4F26A
:102E50000201884270D0FFE7069800685821C4F24A
:102E60000201884268D0FFE7069800687021C4F22A
:102E70000201884260D0FFE7069800688821C4F20A
:102E80000201884258D0FFE706980068A021C4F2EA
:102E90000201884250D0FFE706980068B821C4F2CA
:102EA0000201884248D0FFE70698006840F21041CE
:102EB000C4F2020188423FD0FFE70698006840F262
:102EC0002841C4F20201884236D0FFE70698006824
:102ED00040F24041C4F2020188422DD0FFE706983B
:102EE000006840F25841C4F20201884224D0FFE752
:102EF0000698006840F27041C4F2020188421BD07B
:102F0000FFE70698006840F28841C4F20201884257
:102F100012D0FFE70698006840F2A041C4F2020117
:102F2000884209D0FFE70698006840F2B841C4F231
:102F30000201884207D1FFE706980168086820F07F
:102F40000100086006E006980168086820F00100AA
:102F50000860FFE706980599049A039BFDF7E4FED5
:102F60000698016801201022C4F2020291420190E9
:102F700000F0A380FFE70698016801202822C4F230
:102F800002029142019000F09880FFE706980168E4
:102F900001204022C4F202029142019000F08D8093
:102FA000FFE70698016801205822C4F2020291420C
:102FB000019000F08280FFE70698016801207022EE
:102FC000C4F202029142019077D0FFE706980168AF
:102FD00001208822C4F20202914201906DD0FFE7E5
:102FE000069801680120A022C4F2020291420190D9
:102FF00063D0FFE7069801680120B822C4F20202FC
:103000009142019059D0FFE706980168012040F2F3
:103010001042C4F20202914201904ED0FFE706989E
:103020000168012040F22842C4F20202914201905C
:1030300043D0FFE706980168012040F24042C4F205
:1030400002029142019038D0FFE706980168012002
:1030500040F25842C4F20202914201902DD0FFE7A3
:1030600006980168012040F27042C4F202029142C7
:10307000019022D0FFE706980168012040F28842C3
:10308000C4F202029142019017D0FFE7069801684E
:10309000012040F2A042C4F20202914201900CD001
:1030A000FFE7069800684FF64831CBF6FD710844FB
:1030B000B0FA80F040090190FFE70198C007A8B17D
:1030C000FFE70698006800680B2161F34400069949
:1030D000096808600698006C38B1FFE70698016837
:1030E000086840F008000860FFE714E006980068F0
:1030F0000068052161F34300069909680860069895
:10310000006C38B1FFE706980168086840F00400D9
:103110000860FFE7FFE70698016801201022C4F26B
:1031200002029142009000F00381FFE706980168D7
:1031300001202822C4F202029142009000F0F8809F
:10314000FFE70698016801204022C4F20202914282
:10315000009000F0ED80FFE70698016801205822FA
:10316000C4F202029142009000F0E280FFE706986C
:10317000016801207022C4F202029142009000F026
:10318000D780FFE70698016801208822C4F2020276
:103190009142009000F0CC80FFE706980168012082
:1031A000A022C4F202029142009000F0C180FFE729
:1031B000069801680120B822C4F2020291420090F0
:1031C00000F0B680FFE706980168012040F2104247
:1031D000C4F202029142009000F0AA80FFE7069834
:1031E0000168012040F22842C4F20202914200909C
:1031F00000F09E80FFE706980168012040F24042FF
:10320000C4F202029142009000F09280FFE706981B
:103210000168012040F25842C4F20202914200903B
:1032200000F08680FFE706980168012040F27042B6
:10323000C4F20202914200907AD0FFE7069801683A
:10324000012040F28842C4F20202914200906FD005
:10325000FFE706980168012040F2A042C4F2020292
:103260009142009064D0FFE706980168012040F287
:10327000B842C4F202029142009059D0FFE706988A
:103280000168012045F20842C5F602029142009011
:103290004ED0FFE706980168012045F21C42C5F6B2
:1032A00002029142009043D0FFE706980168012096
:1032B00045F23042C5F602029142009038D0FFE755
:1032C00006980168012045F24442C5F60202914287
:1032D00000902DD0FFE706980168012045F2584282
:1032E000C5F602029142009022D0FFE706980168DD
:1032F000012045F26C42C5F602029142009017D0BF
:10330000FFE706980168012045F28042C5F60202F7
:10331000914200900CD0FFE7069800684AF66C31A5
:10332000CAF2FD710844B0FA80F040090090FFE74E
:103330000098C007D0B1FFE70698006E0068C00390
:10334000002807D5FFE70698016E086840F48070F2
:103350000860FFE70698C06E38B1FFE70698C16EB7
:10336000086840F480700860FFE7FFE7069800688F
:103370001021C4F20201884200F08180FFE7069824
:1033800000682821C4F20201884278D0FFE706983D
:1033900000684021C4F20201884270D0FFE706981D
:1033A00000685821C4F20201884268D0FFE70698FD
:1033B00000687021C4F20201884260D0FFE70698DD
:1033C00000688821C4F20201884258D0FFE70698BD
:1033D0000068A021C4F20201884250D0FFE706989D
:1033E0000068B821C4F20201884248D0FFE706987D
:1033F000006840F21041C4F2020188423FD0FFE76A
:103400000698006840F22841C4F20201884236D092
:10341000FFE70698006840F24041C4F2020188428A
:103420002DD0FFE70698006840F25841C4F202012F
:10343000884224D0FFE70698006840F27041C4F249
:10344000020188421BD0FFE70698006840F28841DD
:10345000C4F20201884212D0FFE70698006840F2E9
:10346000A041C4F20201884209D0FFE70698006833
:1034700040F2B841C4F20201884207D1FFE7069842
:103480000168086840F00100086006E006980168DD
:10349000086840F001000860FFE70DE006994FF46E
:1034A00000604865FFE70699002081F83400FFE7D7
:1034B00001208DF80B00FFE79DF80B008DF81F0031
:1034C000FFE79DF81F0008B080BD0000000000006D
:1034D00080B584B0039000F047FA02900398019001
:1034E0000198013048B1FFE740F20800C2F2004005
:1034F0000178019808440190FFE7FFE700F034FAF3
:103500000299401A0199884201D2FFE7F6E704B018
:1035100080BD00000000000081B0ADF8020001B0E5
:10352000704700000000000080B582B0ADF80600D2
:103530008820C5F600000068BDF8061008420BD0D0
:10354000FFE7BDF806008821C5F600010860BDF858
:103550000600FFF7E1FFFFE702B080BD00000000BA
:1035600090B00F900E9100200D908020C5F60000C5
:103570000A90FFE70E9800680D99C840002800F0F7
:10358000CF81FFE70E9800680D9A01219140084015
:103590000C900C98002800F0BF81FFE70E9840685F
:1035A00000F00300012807D0FFE70E98406800F004
:1035B000030002282FD1FFE70F9880680B900D9829
:1035C0004100032000FA01F10B9888430B900E98FC
:1035D000C0680D99490000FA01F10B9808430B905F
:1035E0000B980F9988600F9840680B900D990120F7
:1035F00000FA01F10B9888430B900E984068C0F3D5
:1036000000100D9900FA01F10B9808430B900B98EC
:103610000F994860FFE70E98406800F00300032808
:1036200018D0FFE70F98C0680B900D984100032059
:1036300000FA01F10B9888430B900E9880680D9961
:10364000490000FA01F10B9808430B900B980F9971
:10365000C860FFE70E98406800F00300022826D1FA
:10366000FFE70F980D996FF0030202EA5101084439
:10367000006A0B900D9800F0070081000F2000FAFF
:1036800001F10B9888430B900E9800690D9901F099
:103690000701890000FA01F10B9808430B900B9881
:1036A0000F990D9B02EA530211440862FFE70F983D
:1036B00000680B900D984100032000FA01F10B986F
:1036C00088430B900E98406800F003000D99490064
:1036D00000FA01F10B9808430B900B980F990860C2
:1036E0000E9880798007002800F01581FFE7FFE73A
:1036F00044F2F440C5F60200016841F002010160A5
:10370000006800F0020009900998FFE70D9820F08A
:10371000030040F20841C5F6000140580B900D9897
:1037200000F0030081000F2000FA01F10B9888439C
:103730000B900F980021C5F60201884203D1FFE7E4
:10374000002008907AE00F9840F20041C5F602018F
:10375000884203D1FFE7012007906CE00F9840F604
:103760000001C5F60201884203D1FFE7022006905E
:103770005EE00F9840F60041C5F60201884203D191
:10378000FFE70320059050E00F9841F20001C5F6D5
:103790000201884203D1FFE70420049042E00F9821
:1037A00041F20041C5F60201884203D1FFE705203E
:1037B000039034E00F9841F60001C5F602018842FB
:1037C00003D1FFE70620029026E00F9841F6004162
:1037D000C5F60201884203D1FFE70720019018E0F7
:1037E0000F9842F20001C5F60201884203D1FFE7BB
:1037F000082000900AE00F9942F20042C5F602024A
:103800000A20914208BF09200090FFE7009801902C
:10381000FFE701980290FFE702980390FFE7039803
:103820000490FFE704980590FFE705980690FFE7EE
:1038300006980790FFE707980890FFE708980D990A
:1038400001F00301890000FA01F10B9808430B9085
:103850000B980D9921F0030140F20842C5F60002D1
:1038600088504FF0B04000680B900C990B9888433B
:103870000B900E988079C006002805D5FFE70C99BB
:103880000B9808430B90FFE70B984FF0B04108608E
:103890000420C5F6000000680B900C990B98884333
:1038A0000B900E9880798006002805D5FFE70C99CB
:1038B0000B9808430B90FFE70B980421C5F6000115
:1038C00008600A9840680B900C990B9888430B90FD
:1038D0000E9880798007002805D5FFE70C990B9892
:1038E00008430B90FFE70B980A9948600A98006814
:1038F0000B900C990B9888430B900E988079C00719
:1039000028B1FFE70C990B9808430B90FFE70B9841
:103910000A990860FFE7FFE70D9801300D9029E64E
:1039200010B070470000000082B00190ADF80210A6
:103930008DF801209DF8010028B1FFE7BDF80200D5
:103940000199886105E0BDF80200000401998861D1
:10395000FFE702B07047000041F20000C5F60040EA
:103960000068000C7047000040F21820C2F20040CE
:10397000006870470000000040F20800C2F20040FA
:10398000027840F21821C2F2004108681044086031
:10399000704700000000000080B582B0032000F0F6
:1039A00023F901F031FF44F21842C5F60202116812
:1039B000C1F3032349F63C01C0F60001CB5C03F0E0
:1039C0001F03D84000900098126802F00F02895C33
:1039D00001F01F01C84040F20401C2F2004108603A
:1039E000009840F20001C2F2004108600F2000F090
:1039F00013F820B1FFE701208DF8070005E000F083
:103A0000BBF800208DF80700FFE79DF8070002B023
:103A100080BD00000000000080B582B0009040F240
:103A20000800C2F20040007820B9FFE701208DF8BD
:103A3000070030E040F20000C2F20040006840F2AF
:103A40000801C2F200410A784FF47A71B1FBF2F139
:103A5000B0FBF1F002F00CFE20B1FFE701208DF881
:103A6000070018E000980F280DD8FFE700994FF0E5
:103A7000FF30002200F0A0F8009840F20C01C2F2E2
:103A80000041086003E001208DF8070003E00020FA
:103A90008DF80700FFE79DF8070002B080BD000029
:103AA00010B581B00090009840784EF69851CEF253
:103AB000000108604EF6A051CEF20001086820F027
:103AC00001000860009840684EF69C52CEF2000259
:103AD0001060DDF800E09EF80C0000079EF80B2057
:103AE00040EA02609EF800209EF808309EF809C067
:103AF0009EF80A4040EAC4409EF80D4040EA8440E7
:103B00009EF80E4040EA44409EF80FE040EA0E4026
:103B100040EA0C2040EA43001043086001B010BDA9
:103B2000BFF35F8F4EF62451CEF20001086820F4F7
:103B3000803008604EF69451CEF2000100200860FB
:103B4000704700000000000081B00090009840F035
:103B500001004EF69451CEF2000108604EF6245159
:103B6000CEF20001086840F480300860BFF34F8F48
:103B7000BFF36F8F01B0704781B0FFE744F2F440AC
:103B8000C5F60200016841F002010160006800F022
:103B9000020000900098FFE701B0704700000000AD
:103BA00080B582B0ADF80600BDF9060005F078FDDD
:103BB00002B080BD0000000080B586B0ADF81600F0
:103BC0000491039205F084FD0290BDF91600019066
:103BD00002980499039A03F0FFFD0146019805F04D
:103BE0007FFD06B080BD000080B582B001900198D5
:103BF00005F09AFD02B080BD80B584B0029044F615
:103C00000C00C5F60200006800F004010020B0EBD3
:103C1000910F13D1FFE744F60C00C5F602000068CF
:103C200000F007000299884204D0FFE701208DF8D8
:103C30000F002EE000208DF80F002AE044F60C0162
:103C4000C5F60201086820F00700029A10430860D8
:103C5000FFF78AFE0190FFE744F60400C5F6020074
:103C6000006800F400510020B0EB513F0DD1FFE798
:103C7000FFF77AFE0199401AB0F57A7F04D9FFE781
:103C800001208DF80F0004E0E6E700208DF80F001A
:103C9000FFE79DF80F0004B080BD000000000000A9
:103CA00080B501F05DFD44F22041C5F602010968CE
:103CB000C1F3021249F63C01C0F60001895C01F033
:103CC0001F01C84080BD000088B0079044F2284022
:103CD000C5F60200016801F0030106910068C0F317
:103CE0000530059044F22C40C5F602000068C0F390
:103CF00000100490049844F23C41C5F602010968A2
:103D000089B2C908484300EE100AB8EE400A8DEDAA
:103D1000020A0598002800F01B81FFE70698009032
:103D200048B1FFE70098012869D0FFE70098022812
:103D300000F08980ABE044F20040C5F60200006864
:103D400000F020010020B0EB511F33D0FFE744F218
:103D50000040C5F602000068C0F3C10149F200004E
:103D6000C0F2D030C84003909DED030AB8EE400A7F
:103D70009DED051AB8EE411A80EE010A44F2384072
:103D8000C5F6020000686FF35F2001EE100AB8EE7E
:103D9000411A9DED022A9FED743A82EE032A31EE1C
:103DA000021AB7EE002A31EE021A20EE010A8DED5A
:103DB000010A23E09DED050AB8EE401A9FED6C0A5A
:103DC00080EE010A44F23840C5F6020000686FF345
:103DD0005F2001EE100AB8EE411A9DED022A9FED18
:103DE000623A82EE032A31EE021AB7EE002A31EE71
:103DF000021A20EE010A8DED010AFFE76BE09DED4E
:103E0000050AB8EE401A9FED590A80EE010A44F205
:103E10003840C5F6020000686FF35F2001EE100A1B
:103E2000B8EE411A9DED022A9FED4F3A82EE032A29
:103E300031EE021AB7EE002A31EE021A20EE010A24
:103E40008DED010A47E09DED050AB8EE401A9FEDA1
:103E5000450A80EE010A44F23840C5F602000068C7
:103E60006FF35F2001EE100AB8EE411A9DED022AB1
:103E70009FED3D3A82EE032A31EE021AB7EE002A98
:103E800031EE021A20EE010A8DED010A23E09DEDCC
:103E9000050AB8EE401A9FED350A80EE010A44F299
:103EA0003840C5F6020000686FF35F2001EE100A8B
:103EB000B8EE411A9DED022A9FED2B3A82EE032ABD
:103EC00031EE021AB7EE002A31EE021A20EE010A94
:103ED0008DED010AFFE79DED010A44F23840C5F679
:103EE0000200016889B2490A01EE101AB8EE411ABF
:103EF000B7EE002A31EE021A80EE010A0799BCEEF5
:103F0000C00A81ED000A9DED010A0168C1F3064176
:103F100001EE101AB8EE411A31EE021A80EE010AD3
:103F20000799BCEEC00A81ED010A9DED010A006807
:103F3000C0F3066001EE100AB8EE411A31EE021A23
:103F400080EE010A0798BCEEC00A80ED020A07E085
:103F50000799002008600799486007998860FFE783
:103F600008B070470024F44A000000460024744A58
:103F70000024744C0000000088B0079044F22840F0
:103F8000C5F60200016801F0030106910068C0F364
:103F90000550059044F22C40C5F602000068C0F3BD
:103FA00000200490049844F24441C5F602010968D7
:103FB00089B2C908484300EE100AB8EE400A8DEDF8
:103FC000020A0598002800F01B81FFE70698009080
:103FD00048B1FFE70098012869D0FFE70098022860
:103FE00000F08980ABE044F20040C5F602000068B2
:103FF00000F020010020B0EB511F33D0FFE744F266
:104000000040C5F602000068C0F3C10149F200009B
:10401000C0F2D030C84003909DED030AB8EE400ACC
:104020009DED051AB8EE411A80EE010A44F24040B7
:10403000C5F6020000686FF35F2001EE100AB8EECB
:10404000411A9DED022A9FED743A82EE032A31EE69
:10405000021AB7EE002A31EE021A20EE010A8DEDA7
:10406000010A23E09DED050AB8EE401A9FED6C0AA7
:1040700080EE010A44F24040C5F6020000686FF38A
:104080005F2001EE100AB8EE411A9DED022A9FED65
:10409000623A82EE032A31EE021AB7EE002A31EEBE
:1040A000021A20EE010A8DED010AFFE76BE09DED9B
:1040B000050AB8EE401A9FED590A80EE010A44F253
:1040C0004040C5F6020000686FF35F2001EE100A61
:1040D000B8EE411A9DED022A9FED4F3A82EE032A77
:1040E00031EE021AB7EE002A31EE021A20EE010A72
:1040F0008DED010A47E09DED050AB8EE401A9FEDEF
:10410000450A80EE010A44F24040C5F6020000680C
:104110006FF35F2001EE100AB8EE411A9DED022AFE
:104120009FED3D3A82EE032A31EE021AB7EE002AE5
:1041300031EE021A20EE010A8DED010A23E09DED19
:10414000050AB8EE401A9FED350A80EE010A44F2E6
:104150004040C5F6020000686FF35F2001EE100AD0
:10416000B8EE411A9DED022A9FED2B3A82EE032A0A
:1041700031EE021AB7EE002A31EE021A20EE010AE1
:104180008DED010AFFE79DED010A44F24040C5F6BE
:104190000200016889B2490A01EE101AB8EE411A0C
:1041A000B7EE002A31EE021A80EE010A0799BCEE42
:1041B000C00A81ED000A9DED010A0168C1F30641C4
:1041C00001EE101AB8EE411A31EE021A80EE010A21
:1041D0000799BCEEC00A81ED010A9DED010A006855
:1041E000C0F3066001EE100AB8EE411A31EE021A71
:1041F00080EE010A0798BCEEC00A80ED020A07E0D3
:104200000799002008600799486007998860FFE7D0
:1042100008B070470024F44A000000460024744AA5
:104220000024744C0000000080B59AB01890002063
:104230008DF857008DF856001898C07800070028B0
:1042400048D5FFE71898806E149078B1FFE714986E
:10425000B0F5801F13D0FFE71498B0F5001F16D0FB
:10426000FFE71498B0F5401F19D019E044F22C4133
:10427000C5F60201086840F40030086014E01898A0
:104280000830022103F0E4FA8DF857000CE018988A
:104290002830022103F0C4FB8DF8570004E003E04E
:1042A00001208DF85700FFE79DF8570060B9FFE740
:1042B00044F25041C5F60201086820F44010189AF3
:1042C000926E1043086004E09DF857008DF8560088
:1042D000FFE7FFE718984078C007002840D0FFE7C5
:1042E0001898806D1390042820D81399DFE801F006
:1042F000030C141C1D0044F22C41C5F60201086891
:1043000040F40030086015E018980830002103F0F0
:104310009FFA8DF857000DE018982830002103F01F
:104320007FFB8DF8570005E004E003E001208DF8E5
:104330005700FFE79DF8570060B9FFE744F250418E
:10434000C5F60201086820F00700189A926D104324
:10435000086004E09DF857008DF85600FFE7FFE77E
:1043600018984078800700284BD5FFE71898C06D53
:10437000129088B1FFE71298402816D0FFE71298F4
:1043800080281AD0FFE71298C0281ED0FFE71298A5
:10439000B0F5807F1AD01AE044F22C41C5F6020134
:1043A000086840F40030086015E0189808300021D3
:1043B00003F04EFA8DF857000DE0189828300021D0
:1043C00003F02EFB8DF8570005E004E003E0012028
:1043D0008DF85700FFE79DF8570060B9FFE744F2FA
:1043E0005041C5F60201086820F4E070189AD26DB9
:1043F0001043086004E09DF857008DF85600FFE771
:10440000FFE7189840784007002850D5FFE7189834
:10441000D0F8A8001190A0B1FFE71198B0F5001FE7
:1044200018D0FFE71198B0F5800F1BD0FFE7119867
:10443000B0F5C00F1ED0FFE71198B0F5000F1AD0ED
:104440001AE044F22C41C5F60201086840F400303D
:10445000086015E018980830002103F0F9F98DF88C
:1044600057000DE018982830002103F0D9FA8DF894
:10447000570005E004E003E001208DF85700FFE756
:104480009DF8570068B9FFE744F25841C5F60201AC
:10449000086820F46000189AD2F8A8201043086039
:1044A00004E09DF857008DF85600FFE7FFE71898E5
:1044B00040780007002850D5FFE71898D0F8AC00E6
:1044C0001090A0B1FFE71098B0F1807F18D0FFE7FF
:1044D0001098B0F1007F1BD0FFE71098B0F1407F3B
:1044E0001ED0FFE71098B0F1806F1AD01AE044F2A6
:1044F0002C41C5F60201086840F40030086015E060
:1045000018980830002103F0A3F98DF857000DE04A
:1045100018982830002103F083FA8DF8570005E041
:1045200004E003E001208DF85700FFE79DF85700F5
:1045300068B9FFE744F25841C5F60201086820F067
:10454000E060189AD2F8AC201043086004E09DF8AF
:1045500057008DF85600FFE7FFE71898C0788007EE
:1045600000283ED5FFE71898C06C0F90F0B1FFE728
:104570000F98102808D0FFE70F9820280DD0FFE7EC
:104580000F98302811D012E044F22C41C5F60201F8
:10459000086840F4003008600DE0189808300221E7
:1045A00003F056F98DF8570005E004E003E0012020
:1045B0008DF85700FFE79DF8570060B9FFE744F218
:1045C0004C41C5F60201086820F03000189AD26C00
:1045D0001043086004E09DF857008DF85600FFE78F
:1045E000FFE718984078C00600284ED5FFE71898D6
:1045F000006E0E90A0B1FFE70E98B0F5805F18D066
:10460000FFE70E98B0F5005F1BD0FFE70E98B0F5FE
:10461000405F1ED0FFE70E98B0F5804F1AD01AE029
:1046200044F22C41C5F60201086840F400300860ED
:1046300015E018980830002103F00AF98DF85700AA
:104640000DE018982830002103F0EAF98DF85700A2
:1046500005E004E003E001208DF85700FFE79DF836
:10466000570060B9FFE744F25041C5F602010868FF
:1046700020F4E040189A126E1043086004E09DF8A0
:1046800057008DF85600FFE7FFE71898407880063E
:1046900000284CD5FFE71898406E0D90C8B1FFE791
:1046A0000D98B0F5803F15D0FFE70D98B0F5003FAD
:1046B00018D0FFE70D98B0F5403F1BD0FFE70D98ED
:1046C000B0F5802F17D0FFE70D98B0F5A02F13D0CD
:1046D00013E016E018980830012103F0B9F88DF8BE
:1046E00057000EE018982830012103F099F98DF851
:1046F000570006E005E004E003E001208DF85700D4
:10470000FFE79DF8570060B9FFE744F25041C5F656
:104710000201086820F4E020189A526E10430860E5
:1047200004E09DF857008DF85600FFE7FFE7189862
:104730004078400600284ED5FFE71898D0F8B00022
:104740000C90C8B1FFE70C98B0F1805F15D0FFE77F
:104750000C98B0F1005F18D0FFE70C98B0F1405F03
:104760001BD0FFE70C98B0F1804F17D0FFE70C98F3
:10477000B0F1A04F13D013E016E0189808300121D3
:1047800003F066F88DF857000EE0189828300121E4
:1047900003F046F98DF8570006E005E004E003E079
:1047A00001208DF85700FFE79DF8570068B9FFE733
:1047B00044F25841C5F60201086820F0E040189A1A
:1047C000D2F8B0201043086004E09DF857008DF83F
:1047D0005600FFE7FFE718984078000600283BD511
:1047E000FFE71898006F0B90D8B1FFE70B98B0F176
:1047F000805F05D0FFE70B98B0F1005F09D011E0B2
:1048000044F22C41C5F60201086840F4003008600B
:104810000CE018980830012103F01AF88DF85700C1
:1048200004E003E001208DF85700FFE79DF85700F2
:1048300060B9FFE744F25041C5F60201086820F074
:104840004050189A126F1043086004E09DF857001A
:104850008DF85600FFE7FFE71898C078C0070028DA
:1048600037D0FFE71898806C0A90032817D80A9968
:10487000DFE801F014020B1344F22C41C5F60201EB
:10488000086840F4003008600DE0189808300221F4
:1048900002F0DEFF8DF8570005E004E003E00120A0
:1048A0008DF85700FFE79DF8570060B9FFE744F225
:1048B0004C41C5F60201086820F00300189A926C7A
:1048C0001043086004E09DF857008DF85600FFE79C
:1048D000FFE7189880784006002840F1B480FFE791
:1048E00044F60001C5F60201086840F480700860D3
:1048F000FFF73AF81690FFE744F60000C5F602000D
:104900000068C00500280CD4FFE7FFF72DF81699C2
:10491000401A652804D3FFE703208DF8570000E014
:10492000EAE79DF85700002840F08780FFE744F24F
:104930007040C5F60200006800F440701899D1F884
:10494000B41001F44071884213D0FFE744F2704183
:10495000C5F60201086820F440701790086840F41A
:1049600080300860086820F480300860179808607C
:10497000FFE71898D0F8B400B0F5807F1FD1FFE7AB
:10498000FEF7F2FF1690FFE744F27040C5F6020012
:10499000006800F002010020B0EB510F0ED1FFE7DC
:1049A000FEF7E2FF1699401A41F28931884204D39A
:1049B000FFE703208DF8570000E0E5E7FFE79DF8EB
:1049C0005700A0BBFFE7FFE71898D0F8B40000F449
:1049D0004070B0F5407F13D1FFE744F21041C5F6B7
:1049E0000201086820F47C50189AD2F8B4204FF6DF
:1049F000F043C0F6FF731A4040EA1210086008E066
:104A000044F21041C5F60201086820F47C500860A9
:104A1000FFE71898D0F8B4206FF31F3244F27041CA
:104A2000C5F60201086810430860FFE704E09DF83E
:104A300057008DF85600FFE704E09DF857008DF809
:104A40005600FFE7FFE718980068C007002800F04D
:104A50004C80FFE71898C06F099028282BD8099937
:104A6000DFE801F0152929292929292916292929C9
:104A7000292929291E2929292929292926292929B4
:104A8000292929292729292929292929280016E01E
:104A900018980830012102F0DBFE8DF857000EE077
:104AA00018982830012102F0BBFF8DF8570006E06E
:104AB00005E004E003E001208DF85700FFE79DF8D2
:104AC000570060B9FFE744F25441C5F60201086897
:104AD00020F03800189AD26F1043086004E09DF867
:104AE00057008DF85600FFE7FFE718980078800719
:104AF000002839D5FFE71898806F0890052819D845
:104B00000899DFE801F003040C14151616E0189854
:104B10000830012102F09CFE8DF857000EE0189835
:104B20002830012102F07CFF8DF8570006E005E0F7
:104B300004E003E001208DF85700FFE79DF85700DF
:104B400060B9FFE744F25441C5F60201086820F05D
:104B50000700189A926F1043086004E09DF8570010
:104B60008DF85600FFE7FFE7189800784007002807
:104B70003BD5FFE71898D0F894000790052819D87E
:104B80000799DFE801F003040C14151616E01898D5
:104B90000830012102F05CFE8DF857000EE01898F5
:104BA0002830012102F03CFF8DF8570006E005E0B7
:104BB00004E003E001208DF85700FFE79DF857005F
:104BC00068B9FFE744F25841C5F60201086820F0D1
:104BD0000700189AD2F894201043086004E09DF86A
:104BE00057008DF85600FFE7FFE718980078800619
:104BF00000284ED5FFE71898D0F890000690C8B16D
:104C0000FFE70698B0F1805F15D0FFE70698B0F196
:104C1000005F18D0FFE70698B0F1405F1BD0FFE7B8
:104C20000698B0F1804F17D0FFE70698B0F1A04F7B
:104C300013D013E016E018980830002102F008FEA7
:104C40008DF857000EE018982830022102F0E8FE97
:104C50008DF8570006E005E004E003E001208DF840
:104C60005700FFE79DF8570068B9FFE744F2544149
:104C7000C5F60201086820F0E040189AD2F89020AA
:104C80001043086004E09DF857008DF85600FFE7D8
:104C9000FFE718980078400600284ED5FFE71898DF
:104CA000D0F89C000590C8B1FFE70598B0F5806F7B
:104CB00015D0FFE70598B0F5006F18D0FFE705980D
:104CC000B0F5406F1BD0FFE70598B0F5805F17D0B7
:104CD000FFE70598B0F5A05F13D013E016E0189831
:104CE0000830002102F0B4FD8DF857000EE018984E
:104CF0002830022102F094FE8DF8570006E005E00E
:104D000004E003E001208DF85700FFE79DF857000D
:104D100068B9FFE744F25841C5F60201086820F47B
:104D2000E050189AD2F89C201043086004E09DF8E7
:104D300057008DF85600FFE7FFE718980078000647
:104D400000284ED5FFE71898D0F8A0000490C8B10D
:104D5000FFE70498B0F5005F15D0FFE70498B0F5C1
:104D6000804F18D0FFE70498B0F5C04F1BD0FFE785
:104D70000498B0F5004F17D0FFE70498B0F5204F26
:104D800013D013E016E018980830002102F060FDFF
:104D90008DF857000EE018982830022102F040FEEE
:104DA0008DF8570006E005E004E003E001208DF8EF
:104DB0005700FFE79DF8570068B9FFE744F25841F4
:104DC000C5F60201086820F46040189AD2F8A020C5
:104DD0001043086004E09DF857008DF85600FFE787
:104DE000FFE7189800780007002820D5FFE71898FB
:104DF000D0F88400B0F5805F0CD1FFE71898283018
:104E0000022102F00DFE20B1FFE701208DF85600CF
:104E1000FFE7FFE744F25441C5F60201086820F4B9
:104E20004050189AD2F8842010430860FFE7189881
:104E30000078C006002820D5FFE71898D0F8980021
:104E4000B0F5807F0CD1FFE718982830022102F0DE
:104E5000E7FD20B1FFE701208DF85600FFE7FFE7EF
:104E600044F25841C5F60201086820F44070189ACF
:104E7000D2F8982010430860FFE718988078000760
:104E800000283CD5FFE71898D0F8A400039050B153
:104E9000FFE70398B0F5803F0DD0FFE70398B0F52A
:104EA000003F10D010E018980830002102F0D0FC2C
:104EB0008DF857000CE018982830022102F0B0FD60
:104EC0008DF8570004E003E001208DF85700FFE75C
:104ED0009DF8570068B9FFE744F25841C5F6020152
:104EE000086820F44030189AD2F8A42010430860D3
:104EF00004E09DF857008DF85600FFE7FFE718988B
:104F00008078400700283FD5FFE71898D0F8880040
:104F10000290B0F5801F0AD0FFE70298B0F5001F9D
:104F20000ED0FFE70298B0F5401F11D011E044F217
:104F30002C41C5F60201086840F4003008600CE01E
:104F400018982830012102F06BFD8DF8570004E01D
:104F500003E001208DF85700FFE79DF8570068B97E
:104F6000FFE744F25441C5F60201086820F44010FE
:104F7000189AD2F888201043086004E09DF8570082
:104F80008DF85600FFE7FFE718988078C007A8B3B0
:104F9000FFE71898006D019028B1FFE70198B0F580
:104FA000803F09D010E044F22C41C5F602010868A8
:104FB00040F4003008600BE018980830022102F03D
:104FC00047FC8DF8570003E001208DF85700FFE7FC
:104FD0009DF8570060B9FFE744F24C41C5F6020165
:104FE000086820F48030189A126D1043086004E0BD
:104FF0009DF857008DF85600FFE7FFE71898C07836
:10500000800600280CD5FFE718982830022102F00E
:1050100007FD20B1FFE701208DF85600FFE7FFE70D
:1050200018988078800700283CD5FFE71898D0F8BA
:1050300080000090D0B1FFE70098B0F5807F0AD0E3
:10504000FFE70098B0F5007F0ED0FFE70098B0F5BD
:10505000407F0AD00BE044F22C41C5F602010868FB
:1050600040F40030086006E005E004E003E00120C1
:105070008DF85700FFE79DF8570068B9FFE744F245
:105080005441C5F60201086820F44070189AD2F81D
:1050900080201043086004E09DF857008DF856000A
:1050A000FFE7FFE718988078C00600280CD5FFE7D7
:1050B00044F25041C5F60201086820F00040189AF9
:1050C000526F10430860FFE71898C078C0060028A8
:1050D0000DD5FFE744F21041C5F60201086820F43F
:1050E0008040189AD2F8B82010430860FFE718985B
:1050F0008078800600280CD5FFE744F25041C5F6C1
:105100000201086820F08070189AD26E104308607F
:10511000FFE71898C0784006002811D5FFE7FFE7A1
:1051200044F21041C5F60201086820F4004008600E
:105130001898D0F8BC20086810430860FFE7FFE724
:105140001898C078000600280CD5FFE744F24C41BF
:10515000C5F60201086820F04050189A526D1043BD
:105160000860FFE718988078000600280DD5FFE753
:1051700044F25441C5F60201086820F44000189A30
:10518000D2F88C2010430860FFE718980079C00718
:1051900090B1FFE718980830002102F059FB8DF814
:1051A00057009DF8570008B9FFE704E09DF8570045
:1051B0008DF85600FFE7FFE7189800798007002870
:1051C00012D5FFE718980830012102F041FB8DF855
:1051D00057009DF8570008B9FFE704E09DF8570015
:1051E0008DF85600FFE7FFE7189800794007002880
:1051F00012D5FFE718980830022102F029FB8DF83C
:1052000057009DF8570008B9FFE704E09DF85700E4
:105210008DF85600FFE7FFE718980079000700288F
:1052200012D5FFE718982830002102F0F9FB8DF81D
:1052300057009DF8570008B9FFE704E09DF85700B4
:105240008DF85600FFE7FFE718980079C0060028A0
:1052500012D5FFE718982830012102F0E1FB8DF804
:1052600057009DF8570008B9FFE704E09DF8570084
:105270008DF85600FFE7FFE71898007980060028B0
:1052800012D5FFE718982830022102F0C9FB8DF8EB
:1052900057009DF8570008B9FFE704E09DF8570054
:1052A0008DF85600FFE7FFE79DF8560020B9FFE7AD
:1052B00000208DF8670003E001208DF86700FFE70C
:1052C0009DF867001AB080BD80B586B00490039148
:1052D000049820B9FFE701208DF817003CE20398FD
:1052E00042F20001C5F20021096801F00F01884275
:1052F00016D9FFE742F20000C5F20020016821F054
:105300000F01039A11430160006800F00F00039938
:10531000884204D0FFE701208DF817001CE2FFE768
:10532000049800784007002819D5FFE70498006921
:1053300044F21841C5F60201096801F07001884283
:105340000CD9FFE744F21841C5F60201086820F0C5
:105350007000049A126910430860FFE7FFE70498A1
:1053600000780007002819D5FFE70498406944F247
:105370001C41C5F60201096801F0700188420CD990
:10538000FFE744F21C41C5F60201086820F07000F6
:10539000049A526910430860FFE7FFE70498007819
:1053A000C006002819D5FFE70498806944F21C4123
:1053B000C5F60201096801F4E06188420CD9FFE7F3
:1053C00044F21C41C5F60201086820F4E060049A2A
:1053D000926910430860FFE7FFE7049800788006B1
:1053E000002819D5FFE70498C06944F22041C5F6AA
:1053F0000201096801F0700188420CD9FFE744F20C
:105400002041C5F60201086820F07000049AD269B4
:1054100010430860FFE7FFE7049800788007002842
:1054200019D5FFE70498C06844F21841C5F6020197
:10543000096801F00F0188420CD9FFE744F21841D6
:10544000C5F60201086820F00F00049AD2681043E4
:105450000860FFE7FFE704980078C007002800F025
:105460008C80FFE744F21841C5F60201086820F479
:105470007060049A9268104308600498406802289B
:1054800011D1FFE744F20040C5F60200006800F4C5
:1054900000310020B0EB514F04D1FFE701208DF81F
:1054A000170059E13EE004984068032811D1FFE756
:1054B00044F20040C5F60200006800F000710020D0
:1054C000B0EB516F04D1FFE701208DF8170043E1E5
:1054D00027E004984068012811D1FFE744F200401A
:1054E000C5F60200006800F480710020B0EB112FB7
:1054F00004D1FFE701208DF817002DE110E044F200
:105500000040C5F60200006800F004010020B0EB86
:10551000910F04D1FFE701208DF817001CE1FFE790
:10552000FFE7FFE744F21041C5F60201086820F0EA
:105530000700049A526810430860FEF715FA0190BC
:10554000FFE744F21040C5F60200006800F03800A2
:1055500004994968B0EBC10F0ED0FFE7FEF704FADB
:105560000199401A41F28931884204D3FFE70320B0
:105570008DF81700F0E0E4E7FFE704980078800773
:10558000002819D5FFE70498C06844F21841C5F611
:105590000201096801F00F0188420CD2FFE744F2D2
:1055A0001841C5F60201086820F00F00049AD2687D
:1055B00010430860FFE7FFE7039842F20001C5F2DD
:1055C0000021096801F00F01884216D2FFE742F27C
:1055D0000000C5F20020016821F00F01039A114379
:1055E0000160006800F00F000399884204D0FFE7D3
:1055F00001208DF81700AFE0FFE70498007840071E
:10560000002819D5FFE70498006944F21841C5F64F
:105610000201096801F0700188420CD2FFE744F2F0
:105620001841C5F60201086820F07000049A12695A
:1056300010430860FFE7FFE70498007800070028A0
:1056400019D5FFE70498406944F21C41C5F60201F0
:10565000096801F0700188420CD2FFE744F21C4156
:10566000C5F60201086820F07000049A52691043E0
:105670000860FFE7FFE704980078C006002819D506
:10568000FFE70498806944F21C41C5F602010968ED
:1056900001F4E06188420CD2FFE744F21C41C5F6F8
:1056A0000201086820F4E060049A926910430860DF
:1056B000FFE7FFE7049800788006002819D5FFE788
:1056C0000498C06944F22041C5F60201096801F05E
:1056D000700188420CD2FFE744F22041C5F6020176
:1056E000086820F07000049AD26910430860FFE750
:1056F000FFE700F089F844F21842C5F6020211688B
:10570000C1F3032349F63C01C0F60001CB5C03F072
:105710001F03D84000900098126802F00F02895CC5
:1057200001F01F01C84040F20401C2F200410860CC
:10573000009840F20001C2F20041086040F20C0003
:10574000C2F200400068FEF767F98DF80B009DF883
:105750000B008DF81700FFE79DF8170006B080BD1D
:1057600080B582B000F050F844F21842C5F602024B
:105770001168C1F3032349F63C01C0F60001CB5C7C
:1057800003F01F03D84001900198126802F00F0245
:10579000895C01F01F0120FA01F140F20400C2F21D
:1057A00000400160019940F20002C2F20042116023
:1057B000006802B080BD000080B5FFF7D1FF44F261
:1057C0001C41C5F602010968C1F3021249F63C0109
:1057D000C0F60001895C01F01F01C84080BD0000D7
:1057E00080B5FFF7BDFF44F21C41C5F60201096810
:1057F000C1F3022249F63C01C0F60001895C01F0C8
:105800001F01C84080BD00008AB044F21040C5F6B8
:105810000200006800F0380001460191182800F2EB
:1058200069810199DFE811F01900660166016601DE
:1058300066016601660166013A006601660166015D
:105840006601660166016601400066016601660147
:105850006601660166016601460044F20040C5F635
:105860000200006800F020010020B0EB511F0ED0B4
:10587000FFE744F20040C5F602000068C0F3C10132
:1058800049F20000C0F2D030C840029005E049F271
:105890000000C0F2D0300290FFE731E140F6001086
:1058A000C0F23D0002902BE141F20020C0F27A00EC
:1058B000029025E144F22840C5F60200016801F09B
:1058C000030108910068C0F30510079044F22C40D2
:1058D000C5F60200006800F001000690069844F248
:1058E0003441C5F60201096889B2C908484300EE8F
:1058F000100AB8EE400A8DED040A0798002800F05F
:10590000F580FFE70898009048B1FFE7009801286C
:1059100069D0FFE70098022800F08980ABE044F2EC
:105920000040C5F60200006800F020010020B0EB46
:10593000511F33D0FFE744F20040C5F60200006873
:10594000C0F3C10149F20000C0F2D030C840059058
:105950009DED050AB8EE400A9DED071AB8EE411A12
:1059600080EE010A44F23040C5F6020000686FF391
:105970005F2001EE100AB8EE411A9DED042A9FED5A
:10598000633A82EE032A31EE021AB7EE002A31EEB4
:10599000021A20EE010A8DED030A23E09DED070AAD
:1059A000B8EE401A9FED5B0A80EE010A44F23040E7
:1059B000C5F6020000686FF35F2001EE100AB8EE32
:1059C000411A9DED042A9FED513A82EE032A31EEF1
:1059D000021AB7EE002A31EE021A20EE010A8DED0E
:1059E000030AFFE76BE09DED070AB8EE401A9FED52
:1059F000480A80EE010A44F23040C5F60200006811
:105A00006FF35F2001EE100AB8EE411A9DED042AF3
:105A10009FED3E3A82EE032A31EE021AB7EE002ADB
:105A200031EE021A20EE010A8DED030A47E09DEDEA
:105A3000070AB8EE401A9FED340A80EE010A44F2DC
:105A40003040C5F6020000686FF35F2001EE100AD7
:105A5000B8EE411A9DED042A9FED2C3A82EE032AFE
:105A600031EE021AB7EE002A31EE021A20EE010AD8
:105A70008DED030A23E09DED070AB8EE401A9FED75
:105A8000240A80EE010A44F23040C5F602000068A4
:105A90006FF35F2001EE100AB8EE411A9DED042A63
:105AA0009FED1A3A82EE032A31EE021AB7EE002A6F
:105AB00031EE021A20EE010A8DED030AFFE744F2EF
:105AC0003040C5F60200006881B2012000EB512091
:105AD00009909DED030A9DED091AB8EE411A80EE7A
