:020000040800F2
:10000000780600246D03000811250008A1210008CE
:1000100009250008A9060008712800080000000052
:100020000000000000000000000000009125000812
:10003000B10600080000000089250008F12500082D
:100040008B0300088B0300088B0300088B03000858
:100050008B0300088B0300088B0300088B03000848
:100060008B0300088B0300088B0300088B03000838
:100070008B0300088B0300088B0300088B03000828
:100080008B0300088B0300088B0300088B03000818
:100090008B0300088B0300088B0300088B03000808
:1000A0008B0300088B0300088B0300088B030008F8
:1000B0008B0300088B0300088B0300088B030008E8
:1000C0008B0300088B0300088B0300088B030008D8
:1000D0008B0300088B0300088B0300088B030008C8
:1000E0008B0300088B030008000000008B0300084E
:1000F0008B0300088B0300088B0300088B030008A8
:100100008B0300088B0300088B0300088B03000897
:100110008B0300088B0300088B0300088B03000887
:100120008B0300088B0300088B0300088B03000877
:100130008B0300088B0300088B0300088B03000867
:1001400000000000000000000000000000000000AF
:100150008B0300088B0300088B0300088B03000847
:100160008B0300088B0300088B0300088B03000837
:100170008B0300088B0300088B0300088B03000827
:100180008B0300088B0300088B0300088B03000817
:100190008B0300088B0300088B0300088B03000807
:1001A0008B0300088B0300088B0300088B030008F7
:1001B0008B0300088B0300088B0300088B030008E7
:1001C0008B0300088B0300088B0300088B030008D7
:1001D0008B0300088B0300088B0300088B030008C7
:1001E0008B0300088B0300088B0300088B030008B7
:1001F0008B0300088B0300088B0300088B030008A7
:100200008B0300088B0300088B0300088B03000896
:100210008B0300088B0300088B0300088B03000886
:100220008B0300088B0300088B030008000000000C
:100230008B0300088B030008000000008B030008FC
:100240008B0300088B0300088B0300088B03000856
:100250008B0300088B0300088B0300088B03000846
:100260008B0300088B0300088B0300088B03000836
:100270008B0300088B0300088B03000800000000BC
:100280008B0300088B0300088B03000800000000AC
:10029000000000008B03000800F002F800F056F8A0
:1002A00014A696E8000CB244B344DA4501D100F03C
:1002B0004DF8BAE80F000FA696E83000A5EB04054C
:1002C00004EB0607AAEB0704A7F101074FEA15158F
:1002D0004FEA3414A4F10104AC4201D300F036F823
:1002E00013F0010F18BFFB1A43F0010300F001F8EF
:1002F000DBE71847EC2600000C270000103A24BF6B
:1003000078C878C1FAD8520724BF30C830C144BF7A
:1003100004680C6070470000704700000023002450
:1003200000250026103A28BF78C1FBD8520728BF05
:1003300030C148BF0B6070471FB502F03BFB9DE822
:10034000030000F0ADF81FBD10B510BD00F02AF994
:100350001146FFF7F1FF02F0DBFA00F048F903B4B1
:10036000FFF7F2FF03BC00F079F900000A4880476C
:100370000A4880470A480047FEE7FEE7FEE7FEE737
:10038000FEE7FEE7FEE7FEE7FEE7FEE70548064973
:10039000064A074B70470000C9060008E12600081E
:1003A00099020008780000247806002478020024CE
:1003B0007802002470B5064600F056F8056806F18C
:1003C0000B0020F00704B4429CBF002070BD2B46F8
:1003D0006A68BAB11068A04210D304F108018842DB
:1003E0003CBF5068586007D35168101941601168CC
:1003F000091B016058601460101D70BD13465268DF
:10040000002AE7D12146284600F036F80028DED140
:1004100070BD4FF0000200B5134694469646203951
:1004200022BFA0E80C50A0E80C50B1F12001BFF4AD
:10043000F7AF090728BFA0E80C5048BF0CC05DF813
:1004400004EB890028BF40F8042B08BF704748BF61
:1004500020F8022B11F0804F18BF00F8012B7047D5
:10046000704770477047000000487047180000242C
:10047000704770477047704738B504460A460020F9
:100480006946AFF30080002808BF38BD02460099D6
:10049000204600F065F8012038BD012000F07AB850
:1004A000F8B5AFF30080054600200C460C2000BFD5
:1004B0000646A819A0420DD9324669460020AFF37E
:1004C0000080070008BF00F065F80098A04218BF40
:1004D0000546C419FFF7C8FF05600746F01D20F068
:1004E00007004619284600F00AF8B44208BFF8BDD4
:1004F000A21B31463868BDE8F84000F031B8002151
:100500000160416070470C20704770B50446051FBC
:10051000FFF7AAFF0068002C14BF446870BD002CD0
:1005200018BFAC423CBF20466468F8D301680A1883
:10053000AA4218BF456003D12A68054611440160EC
:1005400028684119A1421CBF6C6070BD6168696078
:1005500021680844286070BD0048704710000024DE
:10056000034640688C46002818BF88423CBF0346BB
:100570004068F8D318681844884207D00CF103008B
:1005800020F00700001D411A521A0146081D0A609A
:10059000FFF7BBBF10B500F039F8BDE8104000F020
:1005A0002FB870477546FFF7D7FFAE46050069467E
:1005B000534620F00700854618B020B5FFF7E6FE49
:1005C000BDE820404FF000064FF000074FF0000854
:1005D0004FF0000BAC46ACE8C009ACE8C009ACE891
:1005E000C009ACE8C00921F007018D46704710B57D
:1005F0000446AFF300802046BDE81040FFF7AFBED1
:10060000002801D000F02AB87047000010B501287A
:1006100005D0002103A000F027F8012010BD09A19A
:10062000F8E7000053494752544D454D3A204F7565
:1006300074206F662068656170206D656D6F7279DA
:10064000000000003A2048656170206D656D6F7292
:100650007920636F727275707465640001491820A7
:10066000ABBEFEE72600020070B505460C460A2028
:1006700000E06D1C00F011F835B128780028F8D1A1
:1006800002E0641C00F009F814B120780028F8D1C9
:10069000BDE870400A20AFF3008008B569468DF8C8
:1006A00000000320ABBE08BDFFE7FEE7000000002E
:1006B000704700000000000081B0EFF3108072B6B8
:1006C0000090FFE7FEE7000044F60C01C5F60201CA
:1006D000086840F002000860FFE744F60400C5F631
:1006E000020000688004002801D4FFE7F5E77047A6
:1006F00080B584B0039000F03BFA0290039801901B
:100700000198013048B1FFE740F20800C2F2004012
:100710000178019808440190FFE7FFE700F028FA0C
:100720000299401A0199884201D2FFE7F6E704B026
:1007300080BD00000000000090B00F900E910020DE
:100740000D908020C5F600000A90FFE70E98006823
:100750000D99C840002800F0CF81FFE70E9800688F
:100760000D9A0121914008400C900C98002800F04F
:10077000BF81FFE70E98406800F00300012807D012
:10078000FFE70E98406800F0030002282FD1FFE732
:100790000F9880680B900D984100032000FA01F13A
:1007A0000B9888430B900E98C0680D99490000FA89
:1007B00001F10B9808430B900B980F9988600F98E4
:1007C00040680B900D99012000FA01F10B988843C5
:1007D0000B900E984068C0F300100D9900FA01F1DB
:1007E0000B9808430B900B980F994860FFE70E9801
:1007F000406800F00300032818D0FFE70F98C06896
:100800000B900D984100032000FA01F10B988843EA
:100810000B900E9880680D99490000FA01F10B9831
:1008200008430B900B980F99C860FFE70E9840683B
:1008300000F00300022826D1FFE70F980D996FF012
:10084000030202EA51010844006A0B900D9800F07F
:10085000070081000F2000FA01F10B9888430B90EC
:100860000E9800690D9901F00701890000FA01F165
:100870000B9808430B900B980F990D9B02EA5302BB
:1008800011440862FFE70F9800680B900D98410033
:10089000032000FA01F10B9888430B900E984068F2
:1008A00000F003000D99490000FA01F10B9808438C
:1008B0000B900B980F9908600E988079800700289C
:1008C00000F01581FFE7FFE744F2F440C5F60200AF
:1008D000016841F002010160006800F00200099027
:1008E0000998FFE70D9820F0030040F20841C5F693
:1008F000000140580B900D9800F0030081000F207C
:1009000000FA01F10B9888430B900F980021C5F66F
:100910000201884203D1FFE7002008907AE00F9897
:1009200040F20041C5F60201884203D1FFE70120F1
:1009300007906CE00F9840F60001C5F6020188426E
:1009400003D1FFE7022006905EE00F9840F60041D9
:10095000C5F60201884203D1FFE70320059050E06D
:100960000F9841F20001C5F60201884203D1FFE76A
:100970000420049042E00F9841F20041C5F60201C4
:10098000884203D1FFE70520039034E00F9841F639
:100990000001C5F60201884203D1FFE7062002905C
:1009A00026E00F9841F60041C5F60201884203D1C6
:1009B000FFE70720019018E00F9842F20001C5F60A
:1009C0000201884203D1FFE7082000900AE00F9956
:1009D00042F20042C5F602020A20914208BF0920F5
:1009E0000090FFE700980190FFE701980290FFE771
:1009F00002980390FFE703980490FFE7049805909E
:100A0000FFE705980690FFE706980790FFE707982D
:100A10000890FFE708980D9901F00301890000FA9A
:100A200001F10B9808430B900B980D9921F00301ED
:100A300040F20842C5F6000288504FF0B04000680E
:100A40000B900C990B9888430B900E988079C006F8
:100A5000002805D5FFE70C990B9808430B90FFE79A
:100A60000B984FF0B04108600420C5F60000006804
:100A70000B900C990B9888430B900E988079800608
:100A8000002805D5FFE70C990B9808430B90FFE76A
:100A90000B980421C5F6000108600A9840680B9085
:100AA0000C990B9888430B900E988079800700284A
:100AB00005D5FFE70C990B9808430B90FFE70B98BF
:100AC0000A9948600A9800680B900C990B98884323
:100AD0000B900E988079C00728B1FFE70C990B980E
:100AE00008430B90FFE70B980A990860FFE7FFE7C0
:100AF0000D9801300D9029E610B0704700000000FD
:100B000082B00190ADF8021001980069BDF80210A2
:100B1000084204D0FFE701208DF8010003E0002027
:100B20008DF80100FFE79DF8010002B0704700005A
:100B300082B00190ADF802108DF801209DF80100FF
:100B400028B1FFE7BDF802000199886105E0BDF812
:100B50000200000401998861FFE702B070470000BD
:100B600041F20000C5F600400068000C704700002C
:100B700040F27000C2F200400068704700000000C0
:100B800040F20800C2F20040027840F27001C2F266
:100B90000041086810440860704700000000000031
:100BA00080B582B0032000F017F900F0BDFB44F2DD
:100BB0001842C5F602021168C1F3032342F6CE11B2
:100BC000C0F60001CB5C03F01F03D84000900098F2
:100BD000126802F00F02895C01F01F01C84040F268
:100BE0000401C2F200410860009840F20001C2F224
:100BF000004108600F2000F013F820B1FFE701204A
:100C00008DF8070005E000F0BBF800208DF8070024
:100C1000FFE79DF8070002B080BD00000000000063
:100C200080B582B0009040F20800C2F20040007827
:100C300020B9FFE701208DF8070030E040F2000006
:100C4000C2F20040006840F20801C2F200410A7896
:100C50004FF47A71B1FBF2F1B0FBF1F001F098FAC8
:100C600020B1FFE701208DF8070018E000980F2859
:100C70000DD8FFE700994FF0FF30002200F094F804
:100C8000009840F20C01C2F20041086003E001202C
:100C90008DF8070003E000208DF80700FFE79DF8BE
:100CA000070002B080BD000010B581B00090009830
:100CB00040784EF69851CEF2000108604EF6A051F1
:100CC000CEF20001086820F001000860009840683A
:100CD0004EF69C52CEF200021060DDF800E09EF865
:100CE0000C0000079EF80B2040EA02609EF80020EE
:100CF0009EF808309EF809C09EF80A4040EAC440B9
:100D00009EF80D4040EA84409EF80E4040EA444080
:100D10009EF80FE040EA0E4040EA0C2040EA430013
:100D20001043086001B010BDBFF35F8F4EF6245131
:100D3000CEF20001086820F4803008604EF694512D
:100D4000CEF20001002008607047000000000000A3
:100D500081B00090009840F001004EF69451CEF220
:100D6000000108604EF62451CEF20001086840F4FC
:100D700080300860BFF34F8FBFF36F8F01B07047B3
:100D800081B0FFE744F2F440C5F60200016841F08B
:100D900002010160006800F0020000900098FFE787
:100DA00001B070470000000080B586B0ADF81600B5
:100DB0000491039201F060FD0290BDF916000190CC
:100DC00002980499039A01F0A7FB0146019801F0EB
:100DD0005BFD06B080BD000080B582B00190019837
:100DE00001F076FD02B080BD80B584B0029044F67B
:100DF0000C00C5F60200006800F004010020B0EB12
:100E0000910F13D1FFE744F60C00C5F6020000680D
:100E100000F007000299884204D0FFE701208DF816
:100E20000F002EE000208DF80F002AE044F60C01A0
:100E3000C5F60201086820F00700029A1043086016
:100E4000FFF796FE0190FFE744F60400C5F60200A6
:100E5000006800F400510020B0EB513F0DD1FFE7D6
:100E6000FFF786FE0199401AB0F57A7F04D9FFE7B3
:100E700001208DF80F0004E0E6E700208DF80F0058
:100E8000FFE79DF80F0004B080BD000000000000E7
:100E900080B586B004900391049820B9FFE7012043
:100EA0008DF817003CE2039842F20001C5F20021E0
:100EB000096801F00F01884216D9FFE742F20000ED
:100EC000C5F20020016821F00F01039A114301606F
:100ED000006800F00F000399884204D0FFE701206A
:100EE0008DF817001CE2FFE70498007840070028FF
:100EF00019D5FFE70498006944F21841C5F60201CC
:100F0000096801F0700188420CD9FFE744F21841EA
:100F1000C5F60201086820F07000049A12691043B7
:100F20000860FFE7FFE7049800780007002819D55C
:100F3000FFE70498406944F21C41C5F602010968C4
:100F400001F0700188420CD9FFE744F21C41C5F65C
:100F50000201086820F07000049A5269104308608A
:100F6000FFE7FFE704980078C006002819D5FFE7DF
:100F70000498806944F21C41C5F60201096801F435
:100F8000E06188420CD9FFE744F21C41C5F602013A
:100F9000086820F4E060049A926910430860FFE753
:100FA000FFE7049800788006002819D5FFE7049829
:100FB000C06944F22041C5F60201096801F07001E0
:100FC00088420CD9FFE744F22041C5F602010868C7
:100FD00020F07000049AD26910430860FFE7FFE731
:100FE000049800788007002819D5FFE70498C068A6
:100FF00044F21841C5F60201096801F00F01884268
:101000000CD9FFE744F21841C5F60201086820F048
:101010000F00049AD26810430860FFE7FFE70498C6
:101020000078C007002800F08C80FFE744F21841E8
:10103000C5F60201086820F47060049A92681043B3
:10104000086004984068022811D1FFE744F200408C
:10105000C5F60200006800F400310020B0EB514FEB
:1010600004D1FFE701208DF8170059E13EE0049814
:101070004068032811D1FFE744F20040C5F60200A2
:10108000006800F000710020B0EB516F04D1FFE761
:1010900001208DF8170043E127E0049840680128FB
:1010A00011D1FFE744F20040C5F60200006800F4E9
:1010B00080710020B0EB112F04D1FFE701208DF8E3
:1010C00017002DE110E044F20040C5F60200006870
:1010D00000F004010020B0EB910F04D1FFE70120E4
:1010E0008DF817001CE1FFE7FFE7FFE744F210412E
:1010F000C5F60201086820F00700049A5268104300
:101100000860FFF735FD0190FFE744F21040C5F697
:101110000200006800F0380004994968B0EBC10F84
:101120000ED0FFE7FFF724FD0199401A41F2893103
:10113000884204D3FFE703208DF81700F0E0E4E7CE
:10114000FFE7049800788007002819D5FFE7049886
:10115000C06844F21841C5F60201096801F00F01A8
:1011600088420CD2FFE744F21841C5F60201086834
:1011700020F00F00049AD26810430860FFE7FFE7F1
:10118000039842F20001C5F20021096801F00F0145
:10119000884216D2FFE742F20000C5F20020016843
:1011A00021F00F01039A11430160006800F00F0065
:1011B0000399884204D0FFE701208DF81700AFE0C3
:1011C000FFE7049800784007002819D5FFE7049846
:1011D000006944F21841C5F60201096801F0700186
:1011E00088420CD2FFE744F21841C5F602010868B4
:1011F00020F07000049A126910430860FFE7FFE7CF
:10120000049800780007002819D5FFE70498406982
:1012100044F21C41C5F60201096801F070018842E0
:101220000CD2FFE744F21C41C5F60201086820F029
:101230007000049A526910430860FFE7FFE70498C2
:101240000078C006002819D5FFE70498806944F2A9
:101250001C41C5F60201096801F4E06188420CD224
:10126000FFE744F21C41C5F60201086820F4E06083
:10127000049A926910430860FFE7FFE7049800783A
:101280008006002819D5FFE70498C06944F2204180
:10129000C5F60201096801F0700188420CD2FFE72F
:1012A00044F22041C5F60201086820F07000049A5B
:1012B000D26910430860FFE7FFE700F035F844F219
:1012C0001842C5F602021168C1F3032342F6CE119B
:1012D000C0F60001CB5C03F01F03D84000900098DB
:1012E000126802F00F02895C01F01F01C84040F251
:1012F0000401C2F200410860009840F20001C2F20D
:101300000041086040F20C00C2F200400068FFF7A4
:1013100087FC8DF80B009DF80B008DF81700FFE798
:101320009DF8170006B080BD8AB044F21040C5F6A3
:101330000200006800F0380001460191182800F210
:1013400069810199DFE811F0190066016601660103
:1013500066016601660166013A0066016601660182
:10136000660166016601660140006601660166016C
:101370006601660166016601460044F20040C5F65A
:101380000200006800F020010020B0EB511F0ED0D9
:10139000FFE744F20040C5F602000068C0F3C10157
:1013A00049F20000C0F2D030C840029005E049F296
:1013B0000000C0F2D0300290FFE731E140F60010AB
:1013C000C0F23D0002902BE141F20020C0F27A0011
:1013D000029025E144F22840C5F60200016801F0C0
:1013E000030108910068C0F30510079044F22C40F7
:1013F000C5F60200006800F001000690069844F26D
:101400003441C5F60201096889B2C908484300EEB3
:10141000100AB8EE400A8DED040A0798002800F083
:10142000F580FFE70898009048B1FFE70098012891
:1014300069D0FFE70098022800F08980ABE044F211
:101440000040C5F60200006800F020010020B0EB6B
:10145000511F33D0FFE744F20040C5F60200006898
:10146000C0F3C10149F20000C0F2D030C84005907D
:101470009DED050AB8EE400A9DED071AB8EE411A37
:1014800080EE010A44F23040C5F6020000686FF3B6
:101490005F2001EE100AB8EE411A9DED042A9FED7F
:1014A000633A82EE032A31EE021AB7EE002A31EED9
:1014B000021A20EE010A8DED030A23E09DED070AD2
:1014C000B8EE401A9FED5B0A80EE010A44F230400C
:1014D000C5F6020000686FF35F2001EE100AB8EE57
:1014E000411A9DED042A9FED513A82EE032A31EE16
:1014F000021AB7EE002A31EE021A20EE010A8DED33
:10150000030AFFE76BE09DED070AB8EE401A9FED76
:10151000480A80EE010A44F23040C5F60200006835
:101520006FF35F2001EE100AB8EE411A9DED042A18
:101530009FED3E3A82EE032A31EE021AB7EE002A00
:1015400031EE021A20EE010A8DED030A47E09DED0F
:10155000070AB8EE401A9FED340A80EE010A44F201
:101560003040C5F6020000686FF35F2001EE100AFC
:10157000B8EE411A9DED042A9FED2C3A82EE032A23
:1015800031EE021AB7EE002A31EE021A20EE010AFD
:101590008DED030A23E09DED070AB8EE401A9FED9A
:1015A000240A80EE010A44F23040C5F602000068C9
:1015B0006FF35F2001EE100AB8EE411A9DED042A88
:1015C0009FED1A3A82EE032A31EE021AB7EE002A94
:1015D00031EE021A20EE010A8DED030AFFE744F214
:1015E0003040C5F60200006881B2012000EB5120B6
:1015F00009909DED030A9DED091AB8EE411A80EE9F
:10160000010ABCEEC00A8DED020A02E00020029041
:10161000FFE705E040F60010C0F23D000290FFE752
:1016200002980AB0704700BF0024F44A0000004648
:101630000024744A0024744C80B58CB00A900A9837
:1016400028B9FFE701208DF82F0000F09DBD0A9812
:101650000078C007002800F0B980FFE744F210408E
:10166000C5F60200006800F03800069044F22840F9
:10167000C5F6020000680590069810280AD0FFE71A
:10168000069818281CD1FFE7059800F003000228EF
:1016900016D1FFE744F20040C5F60200006800F4EE
:1016A00000310020B0EB514F09D0FFE70A984068A5
:1016B00028B9FFE701208DF82F0000F065BD84E018
:1016C000FFE70A984068B0F5803F09D1FFE744F290
:1016D0000041C5F60201086840F48030086032E03D
:1016E0000A98406868B9FFE744F20041C5F6020174
:1016F000086820F480300860086820F480200860C2
:1017000020E00A984068B0F5A02F0DD1FFE744F221
:101710000041C5F60201086840F4802008600868AE
:1017200040F4803008600CE044F20041C5F602014C
:10173000086820F480300860086820F48020086081
:10174000FFE7FFE7FFE7FFE70A984068F0B1FFE730
:10175000FFF70EFA0990FFE744F20040C5F60200D9
:10176000006800F400310020B0EB514F0DD1FFE7CD
:10177000FFF7FEF90999401A652805D3FFE7032012
:101780008DF82F0000F000BDE6E71DE0FFF7F0F94F
:101790000990FFE744F20040C5F60200006800F43B
:1017A00000310020B0EB514F0DD0FFE7FFF7E0F91B
:1017B0000999401A652805D3FFE703208DF82F000B
:1017C00000F0E2BCE6E7FFE7FFE7FFE70A980078F2
:1017D0008007002840F11681FFE744F21040C5F66B
:1017E0000200006800F03800049044F22840C5F67A
:1017F000020000680390049850B1FFE7049818288D
:1018000078D1FFE79DF80C008007002872D1FFE730
:1018100044F20040C5F60200006800F00401002018
:10182000B0EB910F09D0FFE70A98C06828B9FFE72D
:1018300001208DF82F0000F0A7BC44F20041C5F64E
:101840000201086820F019000A9AD2681043086063
:10185000FFF78EF90990FFE744F20040C5F6020059
:10186000006800F004010020B0EB910F0DD1FFE7FC
:10187000FFF77EF90999401A032805D3FFE70320F3
:101880008DF82F0000F080BCE6E7FFE7FFF768F96E
:1018900041F2030188421DD8FFE70A9800694028F9
:1018A0000AD1FFE744F20441C5F60201086820228C
:1018B00062F3113008600CE044F20441C5F6020105
:1018C000086820F47C300A9A126940EA0230086005
:1018D000FFE70CE044F20441C5F60201086820F07D
:1018E000FE400A9A126940EA02600860FFE7FFE7DB
:1018F000FFE786E00A98C06800285CD0FFE744F262
:101900000041C5F60201086820F019000A9AD26861
:1019100010430860FFF72CF90990FFE744F20040FC
:10192000C5F60200006800F004010020B0EB910F42
:101930000DD1FFE7FFF71CF90999401A032805D3D9
:10194000FFE703208DF82F0000F01EBCE6E7FFE75D
:10195000FFF706F941F2030188421DD8FFE70A9814
:10196000006940280AD1FFE744F20441C5F60201AC
:101970000868202262F3113008600CE044F2044150
:10198000C5F60201086820F47C300A9A126940EA20
:1019900002300860FFE70CE044F20441C5F60201A2
:1019A000086820F0FE400A9A126940EA0260086066
:1019B000FFE7FFE724E044F20041C5F602010868B2
:1019C00020F001000860FFF7D3F80990FFE744F228
:1019D0000040C5F60200006800F004010020B0EBF2
:1019E000910F0CD0FFE7FFF7C3F80999401A0328BD
:1019F00004D3FFE703208DF82F00C5E3E7E7FFE7F7
:101A0000FFE7FFE70A980078C006002840F1EB8066
:101A1000FFE744F21040C5F60200006800F038000D
:101A2000029044F22840C5F6020000680190029836
:101A300008280AD0FFE70298182850D1FFE701983C
:101A400000F0030001284AD1FFE744F20040C5F648
:101A50000200006800F480710020B0EB112F09D063
:101A6000FFE70A98C069802804D0FFE701208DF8BD
:101A70002F0089E3FFE7FFF773F841F20301884283
:101A80001DD8FFE70A98006A20280AD1FFE744F230
:101A90000441C5F602010868102262F39E600860E6
:101AA0000CE044F20441C5F60201086820F0F84059
:101AB0000A9A126A40EA82600860FFE70CE044F28A
:101AC0000C41C5F60201086820F07C500A9A126A9F
:101AD00040EA02600860FFE7FFE7FFE782E00A985C
:101AE000C069002858D0FFE744F20041C5F6020162
:101AF000086840F080000860FFF73AF80990FFE7B7
:101B000044F20040C5F60200006800F48071002035
:101B1000B0EB112F0CD1FFE7FFF72AF80999401A13
:101B2000032804D3FFE703208DF82F002CE3E7E719
:101B3000FFE7FFF715F841F2030188421DD8FFE7E0
:101B40000A98006A20280AD1FFE744F20441C5F64A
:101B500002010868102262F39E6008600CE044F203
:101B60000441C5F60201086820F0F8400A9A126A9A
:101B700040EA82600860FFE70CE044F20C41C5F6E1
:101B80000201086820F07C500A9A126A40EA02605A
:101B90000860FFE7FFE724E044F20041C5F60201D8
:101BA000086820F080000860FEF7E2FF0990FFE778
:101BB00044F20040C5F60200006800F48071002085
:101BC000B0EB112F0CD0FFE7FEF7D2FF0999401AB6
:101BD000032804D3FFE703208DF82F00D4E2E7E7C2
:101BE000FFE7FFE7FFE70A980078000700284FD5D6
:101BF000FFE70A98406928B3FFE744F27441C5F64D
:101C00000201086840F001000860FEF7B1FF09908A
:101C1000FFE744F27440C5F60200006800F00201DC
:101C20000020B0EB510F0CD1FFE7FEF7A1FF09999F
:101C3000401A032804D3FFE703208DF82F00A3E206
:101C4000E7E724E044F27441C5F60201086820F099
:101C500001000860FEF78CFF0990FFE744F2744032
:101C6000C5F60200006800F002010020B0EB510F41
:101C70000CD0FFE7FEF77CFF0999401A032804D334
:101C8000FFE703208DF82F007EE2E7E7FFE7FFE79D
:101C90000A980078800600284FD5FFE70A988069E7
:101CA00028B3FFE744F20041C5F60201086840F49A
:101CB00080500860FEF75CFF0990FFE744F20040A7
:101CC000C5F60200006800F400510020B0EB513F5F
:101CD0000CD1FFE7FEF74CFF0999401A032804D303
:101CE000FFE703208DF82F004EE2E7E724E044F2FF
:101CF0000041C5F60201086820F480500860FEF734
:101D000037FF0990FFE744F20040C5F60200006883
:101D100000F400510020B0EB513F0CD0FFE7FEF77C
:101D200027FF0999401A032804D3FFE703208DF801
:101D30002F0029E2E7E7FFE7FFE70A98007840076E
:101D4000002840F1A780FFE744F60001C5F6020134
:101D5000086840F480700860FEF70AFF0990FFE70A
:101D600044F60000C5F602000068C00500280CD447
:101D7000FFE7FEF7FDFE0999401A652804D3FFE747
:101D800003208DF82F00FFE1EAE7FFE70A9880685B
:101D9000012809D1FFE744F27041C5F60201086845
:101DA00040F00100086031E00A98806868B9FFE7F8
:101DB00044F27041C5F60201086820F00100086095
:101DC000086820F0040008601FE00A988068052871
:101DD0000DD1FFE744F27041C5F60201086840F0FA
:101DE00004000860086840F0010008600CE044F25C
:101DF0007041C5F60201086820F00100086008681B
:101E000020F004000860FFE7FFE7FFE7FFE70A981C
:101E10008068F8B1FFE7FEF7ABFE0990FFE744F2F8
:101E20007040C5F60200006800F002010020B0EB2F
:101E3000510F0ED1FFE7FEF79BFE0999401A41F2C0
:101E40008931884204D3FFE703208DF82F009BE1FE
:101E5000E5E71EE0FEF78CFE0990FFE744F27040D4
:101E6000C5F60200006800F002010020B0EB510F3F
:101E70000ED0FFE7FEF77CFE0999401A41F2893146
:101E8000884204D3FFE703208DF82F007CE1E5E7CB
:101E9000FFE7FFE70A98406A002800F07181FFE73A
:101EA00044F21040C5F60200006800F0380018281F
:101EB00000F0E080FFE70A98406A022840F0B48012
:101EC000FFE744F20041C5F60201086820F0807087
:101ED0000860FEF74DFE0990FFE744F20040C5F6AA
:101EE0000200006800F000710020B0EB516F0CD0D0
:101EF000FFE7FEF73DFE0999401A032804D3FFE7E8
:101F000003208DF82F003FE1E7E7FFE744F2284187
:101F1000C5F60201086840F2F33290430A9B9A6AC0
:101F2000DB6A42EA0312104308600A99086BD1F891
:101F300034C08B6BCA6B01386FF35F204FF60061C2
:101F4000CFF6FF7101EB4C2189B208440021CFF696
:101F5000FF7101EB034101F4FE0108444FF07F41A2
:101F600001EB026101F0FE41084444F23041C5F644
:101F700002010860FFE744F22C41C5F6020100911E
:101F8000086820F00100086044F23442C5F60202FD
:101F900010684FF6F87398430A9B9B6C40EAC300A5
:101FA0001060086820F00C000A9A126C1043086058
:101FB000086820F002000A9A526C10430860086812
:101FC00040F480300860086840F400300860086819
:101FD00040F480200860086840F00100086044F286
:101FE0000041C5F60201086840F080700860FEF705
:101FF000BFFD0990FFE744F20040C5F6020000680B
:1020000000F000710020B0EB516F0CD1FFE7FEF73C
:10201000AFFD0999401A032804D3FFE703208DF888
:102020002F00B1E0E7E724E044F20041C5F60201E9
:10203000086820F080700860FEF79AFD0990FFE7BD
:1020400044F20040C5F60200006800F00071002074
:10205000B0EB516F0CD0FFE7FEF78AFD0999401AEB
:10206000032804D3FFE703208DF82F008CE0E7E777
:10207000FFE784E044F22840C5F6020000680890BB
:1020800044F23040C5F60200006807900A98406AA2
:10209000012837D0FFE7089800F003000A99896A01
:1020A00088422FD1FFE7089800F47C710A98C06A33
:1020B000B0EB111F26D1FFE707986FF35F200A9955
:1020C000096B013988421DD1FFE7BDF81C100A9841
:1020D000406B0138B0EB512F14D1FFE7079800F4A3
:1020E000FE010A98806B0138B0EB114F0AD1FFE76F
:1020F000079800F0FE410A98C06B0138B0EB116FF1
:1021000004D0FFE701208DF82F003DE044F2344079
:10211000C5F60200006880B2C00808900A98806C7A
:102120000899884229D0FFE744F22C41C5F6020104
:10213000086820F001000860FEF71AFD0990FFE72B
:10214000FEF716FD0999401A08B9FFE7F8E744F2CF
:102150003441C5F6020108684FF6F87290430A9AB6
:10216000926C40EAC200086044F22C41C5F60201BC
:10217000086840F001000860FFE7FFE7FFE7FFE7BE
:1021800000208DF82F00FFE79DF82F000CB080BDD8
:1021900080B582B00190019800F0FEF902B080BDD8
:1021A000FFE7FEE70000000080B584B003900399CC
:1021B00008688988FEF7A4FC002818BF01208DF864
:1021C0000B000398007A01460191032872D8019907
:1021D000DFE801F002153B4E9DF80B0000F0010016
:1021E00003998A7901219143884207D1FFE7039936
:1021F00001200872039900204872FFE75AE0039813
:10220000C179407A884205DAFFE70399487A0130BC
:10221000487219E09DF80B0000F0010003998A79DB
:102220000121914388420AD1FFE7039902200872F5
:1022300003990020487203990120887203E00399F2
:1022400000200872FFE7FFE734E09DF80B0000F084
:1022500001000399897901F00101884207D1FFE764
:10226000039903200872039900204872FFE721E0D8
:102270000398C179407A884205DAFFE70399487AE2
:102280000130487215E09DF80B0000F00100039941
:10229000897901F00101884206D1FFE70399002006
:1022A00008720399887203E0039902200872FFE71D
:1022B000FFE7FFE70398807A00F0010004B080BDDB
:1022C00080B584B00290029818B9FFE7002003900F
:1022D0002FE00C20FEF76EF80190019818B9FFE787
:1022E0000020039025E00298808801998880029858
:1022F00000680199086002988079019900F0010056
:1023000088710298C1793220B0FBF1F00199C8714F
:102310000198C079002804DCFFE701990120C87109
:10232000FFE70199002008720199887201980390D3
:10233000FFE7039804B080BD80B582B00190019A98
:1023400010689188927902F00102FEF7F1FB019981
:102350000020C87102B080BD80B582B00190019AA2
:10236000106891889379012200929A43FEF7E0FB6E
:1023700000980199C87102B080BD00000000000003
:1023800080B584B00290029818B9FFE7002003904E
:1023900020E00820FEF70EF80190019818B9FFE739
:1023A0000020039016E002980068019908600298E6
:1023B00080880199888002988079019900F0010055
:1023C000887101990020C8710198FFF7B5FF019845
:1023D0000390FFE7039804B080BD000000000000F8
:1023E00080B586B000200190059004900390029083
:1023F000FEF79AFC019801218DF808108DF809006C
:1024000003901F228DF8102087228DF811208DF85F
:1024100012008DF813008DF814108DF815108DF83A
:1024200016008DF8170002A8FEF73EFC0420FEF708
:102430008FFC06B080BD000080B590B000200F90EA
:102440000E900D900C900B90FFE744F2E040C5F623
:102450000200016841F010010160006800F0100006
:102460000A900A98FFE7FFE744F2E040C5F6020051
:10247000016841F080010160006800F0800009906F
:102480000998FFE7FFE744F2E040C5F60200016863
:1024900041F001010160006800F001000890089817
:1024A000FFE741F20000C5F60200029060210191B1
:1024B00001220492FEF73CFB049A0020C5F60200BC
:1024C000069010210391FEF733FB019A02980499BC
:1024D0000B920C910D91002105910E910BA9079182
:1024E000FEF72AF9DDF80CC0049B059A06980799B7
:1024F000CDF82CC00C930D930E92FEF71DF910B081
:1025000080BD000000000000FFE7FEE700000000C3
:10251000FFE7FEE70000000088B0079006910592F3
:10252000079800F0070004900498C0F10700052800
:1025300003D3FFE70420019004E00498C0F10700F2
:102540000190FFE70198039004980430062803D80F
:10255000FFE70020009003E0049803380090FFE7B5
:102560000098029006980399012202FA01F10139BC
:102570000840029B984005999A40013A114008434F
:1025800008B0704700000000704700000000000025
:10259000704700000000000080B582B000900098F5
:1025A0000138B0F1807F03D3FFE70120019019E0EB
:1025B000009801384EF21401CEF2000108604FF08D
:1025C000FF300F2100F060F94EF21801CEF2000149
:1025D000002008604EF21002CEF2000207211160C6
:1025E0000190FFE7019802B080BD000000000000EC
:1025F00080B5FEF7C5FA80BD80B59EB00BA84C2112
:10260000FDF707FF002001900A90099008900790BD
:1026100006900590049003900220FEF7E5FBFFE78B
:102620000020029044F61800C5F60200016841F44B
:1026300040410160006800F44040029040F22C40AC
:10264000C5F60000016841F001010160006800F07A
:10265000010002900298FFE7FFE744F61800C5F674
:102660000200006800F40050B0F5005F01D0FFE701
:10267000F3E701210B914FF480300C90022014906D
:102680001590169178211791189019901A900C2096
:102690001B9000201C901D900BA8FEF7CDFF18B1D9
:1026A000FFE7FEF709F8FFE73F20039003200490BF
:1026B00000200590082006904020079008904FF4D5
:1026C000806109910A9003A80421FEF7E1FB18B18B
:1026D000FFE7FDF7F1FFFFE71EB080BD000000003F
:1026E00081B04EF68851CEF20001086840F47000C7
:1026F000086042F20000C5F20020006800F00F0000
:1027000006280AD8FFE742F20001C5F20021086856
:10271000072262F303000860FFE744F20041C5F6B8
:102720000201086840F00100086044F21042C5F65A
:1027300002020020106008684EF67F52CEF6F622A4
:102740001040086042F20000C5F20020006800F06E
:102750000F0008280AD3FFE742F20001C5F200216A
:102760000868072262F303000860FFE744F218419B
:10277000C5F6020100200090086044F21C41C5F635
:102780000201086044F22041C5F60201086044F2EB
:102790002842C5F6020240F20021C0F20221116077
:1027A00044F22C42C5F602020021C0F2FF11116072
:1027B00044F23042C5F6020240F28021C0F201111B
:1027C000116044F23442C5F60202106044F238420D
:1027D000C5F60202116044F23C42C5F602021060E6
:1027E00044F24042C5F60202116044F24441C5F68B
:1027F0000201086044F20042C5F60202116821F4A9
:102800008021116044F26041C5F60201086041F286
:102810000001C5F600410968B0EB517F07D1FFE721
:1028200048F20811C5F2001101200860FFE744F2E8
:10283000D440C5F602000068C004002814D4FFE7A5
:1028400044F2D441C5F60201086840F480500860A3
:1028500044F20002C5F2002243F2D2001060086880
:1028600020F480500860FFE701B0704700000000CE
:10287000FFE7FEE7000000004EF60C50CEF200002D
:102880000068C0F30220704782B0ADF806000091E6
:10289000BDF9060000280AD4FFE700980001BDF941
:1028A00006104EF20042CEF2000288540BE000986F
:1028B0000001BDF8061001F00F014EF61452CEF2E1
:1028C00000028854FFE702B07047000000000000DB
:1028D00083B00290029800F0070000904EF60C5171
:1028E000CEF200010868019001984FF6FF021040F7
:1028F00001900198009A40EA02200022C0F2FA52A8
:10290000104301900198086003B070470000000078
:1029100080B58CB000200B90FFF762FDFEF740F908
:10292000FFF76AFEFFF788FD2020C0F201000A9041
:1029300041F20000C5F602000190099009A8FFF7D6
:102940001FFD0146019808914021C0F20101079145
:10295000069006A8FFF714FD059048F20000C3F2A8
:10296000002004900020C5F60200039003A8FFF7A2
:10297000A7FC0290FFE70298FFF716FC58B1FFE7AB
:102980000898FFF7E9FC0020C5F60200102100229C
:10299000FEF7CEF80AE00898FFF7CEFC0020C5F657
:1029A000020010210122FEF7C3F8FFE73220FDF7F5
:1029B0009FFEE0E7F1EE100A4FF6FF71C0F2C03162
:1029C00020EA010040F04070E1EE100A704700007C
:1029D00000000102030401020304060708090000C5
:1029E000002A00080000002410000000FC0200087B
:1029F000102A000810000024680600001C030008CC
:102A00000090D0030090D0030100000010000000EF
:040000050800029954
:00000001FF
